{
    "contractName": "Cryptures",
    "abi": [
        {
            "inputs": [
                {
                    "internalType": "string",
                    "name": "baseTokenURI",
                    "type": "string"
                }
            ],
            "stateMutability": "nonpayable",
            "type": "constructor"
        },
        {
            "anonymous": false,
            "inputs": [
                {
                    "indexed": true,
                    "internalType": "address",
                    "name": "owner",
                    "type": "address"
                },
                {
                    "indexed": true,
                    "internalType": "address",
                    "name": "approved",
                    "type": "address"
                },
                {
                    "indexed": true,
                    "internalType": "uint256",
                    "name": "tokenId",
                    "type": "uint256"
                }
            ],
            "name": "Approval",
            "type": "event"
        },
        {
            "anonymous": false,
            "inputs": [
                {
                    "indexed": true,
                    "internalType": "address",
                    "name": "owner",
                    "type": "address"
                },
                {
                    "indexed": true,
                    "internalType": "address",
                    "name": "operator",
                    "type": "address"
                },
                {
                    "indexed": false,
                    "internalType": "bool",
                    "name": "approved",
                    "type": "bool"
                }
            ],
            "name": "ApprovalForAll",
            "type": "event"
        },
        {
            "anonymous": false,
            "inputs": [
                {
                    "indexed": true,
                    "internalType": "address",
                    "name": "from",
                    "type": "address"
                },
                {
                    "indexed": true,
                    "internalType": "address",
                    "name": "to",
                    "type": "address"
                },
                {
                    "indexed": true,
                    "internalType": "uint256",
                    "name": "tokenId",
                    "type": "uint256"
                }
            ],
            "name": "Transfer",
            "type": "event"
        },
        {
            "inputs": [
                {
                    "internalType": "address",
                    "name": "to",
                    "type": "address"
                },
                {
                    "internalType": "uint256",
                    "name": "tokenId",
                    "type": "uint256"
                }
            ],
            "name": "approve",
            "outputs": [],
            "stateMutability": "nonpayable",
            "type": "function"
        },
        {
            "inputs": [
                {
                    "internalType": "address",
                    "name": "owner",
                    "type": "address"
                }
            ],
            "name": "balanceOf",
            "outputs": [
                {
                    "internalType": "uint256",
                    "name": "",
                    "type": "uint256"
                }
            ],
            "stateMutability": "view",
            "type": "function"
        },
        {
            "inputs": [
                {
                    "internalType": "uint256",
                    "name": "tokenId",
                    "type": "uint256"
                }
            ],
            "name": "burn",
            "outputs": [],
            "stateMutability": "nonpayable",
            "type": "function"
        },
        {
            "inputs": [
                {
                    "internalType": "uint256",
                    "name": "id",
                    "type": "uint256"
                }
            ],
            "name": "feedCreatureFromId",
            "outputs": [
                {
                    "internalType": "uint256",
                    "name": "",
                    "type": "uint256"
                }
            ],
            "stateMutability": "nonpayable",
            "type": "function"
        },
        {
            "inputs": [
                {
                    "internalType": "uint256",
                    "name": "tokenId",
                    "type": "uint256"
                }
            ],
            "name": "getApproved",
            "outputs": [
                {
                    "internalType": "address",
                    "name": "",
                    "type": "address"
                }
            ],
            "stateMutability": "view",
            "type": "function"
        },
        {
            "inputs": [
                {
                    "internalType": "address",
                    "name": "owner",
                    "type": "address"
                },
                {
                    "internalType": "address",
                    "name": "operator",
                    "type": "address"
                }
            ],
            "name": "isApprovedForAll",
            "outputs": [
                {
                    "internalType": "bool",
                    "name": "",
                    "type": "bool"
                }
            ],
            "stateMutability": "view",
            "type": "function"
        },
        {
            "inputs": [
                {
                    "internalType": "address",
                    "name": "to",
                    "type": "address"
                },
                {
                    "internalType": "enum Cryptures.CrypturesType",
                    "name": "cryptureType",
                    "type": "uint8"
                }
            ],
            "name": "mint",
            "outputs": [],
            "stateMutability": "nonpayable",
            "type": "function"
        },
        {
            "inputs": [],
            "name": "name",
            "outputs": [
                {
                    "internalType": "string",
                    "name": "",
                    "type": "string"
                }
            ],
            "stateMutability": "view",
            "type": "function"
        },
        {
            "inputs": [],
            "name": "owner",
            "outputs": [
                {
                    "internalType": "address",
                    "name": "",
                    "type": "address"
                }
            ],
            "stateMutability": "view",
            "type": "function"
        },
        {
            "inputs": [
                {
                    "internalType": "uint256",
                    "name": "tokenId",
                    "type": "uint256"
                }
            ],
            "name": "ownerOf",
            "outputs": [
                {
                    "internalType": "address",
                    "name": "",
                    "type": "address"
                }
            ],
            "stateMutability": "view",
            "type": "function"
        },
        {
            "inputs": [
                {
                    "internalType": "address",
                    "name": "from",
                    "type": "address"
                },
                {
                    "internalType": "address",
                    "name": "to",
                    "type": "address"
                },
                {
                    "internalType": "uint256",
                    "name": "tokenId",
                    "type": "uint256"
                }
            ],
            "name": "safeTransferFrom",
            "outputs": [],
            "stateMutability": "nonpayable",
            "type": "function"
        },
        {
            "inputs": [
                {
                    "internalType": "address",
                    "name": "from",
                    "type": "address"
                },
                {
                    "internalType": "address",
                    "name": "to",
                    "type": "address"
                },
                {
                    "internalType": "uint256",
                    "name": "tokenId",
                    "type": "uint256"
                },
                {
                    "internalType": "bytes",
                    "name": "_data",
                    "type": "bytes"
                }
            ],
            "name": "safeTransferFrom",
            "outputs": [],
            "stateMutability": "nonpayable",
            "type": "function"
        },
        {
            "inputs": [
                {
                    "internalType": "address",
                    "name": "operator",
                    "type": "address"
                },
                {
                    "internalType": "bool",
                    "name": "approved",
                    "type": "bool"
                }
            ],
            "name": "setApprovalForAll",
            "outputs": [],
            "stateMutability": "nonpayable",
            "type": "function"
        },
        {
            "inputs": [
                {
                    "internalType": "bytes4",
                    "name": "interfaceId",
                    "type": "bytes4"
                }
            ],
            "name": "supportsInterface",
            "outputs": [
                {
                    "internalType": "bool",
                    "name": "",
                    "type": "bool"
                }
            ],
            "stateMutability": "view",
            "type": "function"
        },
        {
            "inputs": [],
            "name": "symbol",
            "outputs": [
                {
                    "internalType": "string",
                    "name": "",
                    "type": "string"
                }
            ],
            "stateMutability": "view",
            "type": "function"
        },
        {
            "inputs": [
                {
                    "internalType": "uint256",
                    "name": "index",
                    "type": "uint256"
                }
            ],
            "name": "tokenByIndex",
            "outputs": [
                {
                    "internalType": "uint256",
                    "name": "",
                    "type": "uint256"
                }
            ],
            "stateMutability": "view",
            "type": "function"
        },
        {
            "inputs": [
                {
                    "internalType": "address",
                    "name": "owner",
                    "type": "address"
                },
                {
                    "internalType": "uint256",
                    "name": "index",
                    "type": "uint256"
                }
            ],
            "name": "tokenOfOwnerByIndex",
            "outputs": [
                {
                    "internalType": "uint256",
                    "name": "",
                    "type": "uint256"
                }
            ],
            "stateMutability": "view",
            "type": "function"
        },
        {
            "inputs": [
                {
                    "internalType": "uint256",
                    "name": "tokenId",
                    "type": "uint256"
                }
            ],
            "name": "tokenURI",
            "outputs": [
                {
                    "internalType": "string",
                    "name": "",
                    "type": "string"
                }
            ],
            "stateMutability": "view",
            "type": "function"
        },
        {
            "inputs": [],
            "name": "totalSupply",
            "outputs": [
                {
                    "internalType": "uint256",
                    "name": "",
                    "type": "uint256"
                }
            ],
            "stateMutability": "view",
            "type": "function"
        },
        {
            "inputs": [
                {
                    "internalType": "address",
                    "name": "from",
                    "type": "address"
                },
                {
                    "internalType": "address",
                    "name": "to",
                    "type": "address"
                },
                {
                    "internalType": "uint256",
                    "name": "tokenId",
                    "type": "uint256"
                }
            ],
            "name": "transferFrom",
            "outputs": [],
            "stateMutability": "nonpayable",
            "type": "function"
        },
        {
            "inputs": [
                {
                    "internalType": "uint256",
                    "name": "id",
                    "type": "uint256"
                }
            ],
            "name": "washCreatureFromId",
            "outputs": [
                {
                    "internalType": "uint256",
                    "name": "",
                    "type": "uint256"
                }
            ],
            "stateMutability": "nonpayable",
            "type": "function"
        }
    ],
    "bytecode": "60806040523480156200001157600080fd5b50604051620027ee380380620027ee8339810160408190526200003491620006f9565b6040805180820182526008815267437279707475726560c01b60208083019182528351808501909452600484526310d4941560e21b908401528151919291620000809160009162000610565b5080516200009690600190602084019062000610565b50508151620000ae9150600b90602084019062000610565b50600c80546001600160a01b03191633179055600e805462ffffff1916610102179055604080516020808201909252600080825260029052600f9091526200011a907fa74ba3945261e09fde15ba3db55005b205e61eeb4ad811ac0faa2b315bffeead9060016200069f565b5060408051602080820190925260018082526000819052600f90925262000164917f169f97de0d9a84d840042b17d3c6b9638b3d6fd9024c9eb0c7a306a17b49f88f91906200069f565b506040805160208082019092526002815260008052600f909152620001ad907ff4803e074bd026baaf6ed2e288c9515f68c72fb7216eebdd7cae1718a53ec3759060016200069f565b506040805160e081018252600660a08201818152655461636b6c6560d01b60c0840190815290835260006020840152602893830193909352606460608301526023608083015290916010916200020591839162000610565b50602082015160018083018054909160ff19909116908360038111156200023c57634e487b7160e01b600052602160045260246000fd5b021790555060408281015160028301556060808401516003840155608093840151600490930192909255805160e081018252600960a0820181815268056696e6520576869760bc1b60c0840190815290835260016020840152602d93830193909352606493820193909352601993810193909352601591620002c091839162000610565b50602082015160018083018054909160ff1990911690836003811115620002f757634e487b7160e01b600052602160045260246000fd5b02179055506040820151816002015560608201518160030155608082015181600401559050506040518060a001604052806040518060400160405280600581526020016422b6b132b960d91b8152508152602001600260038111156200036d57634e487b7160e01b600052602160045260246000fd5b8152602860208083019190915260646040830152601960609092019190915281518051601a92620003a392849291019062000610565b50602082015160018083018054909160ff1990911690836003811115620003da57634e487b7160e01b600052602160045260246000fd5b02179055506040820151816002015560608201518160030155608082015181600401559050506040518060a00160405280604051806040016040528060098152602001682bb0ba32b91023bab760b91b81525081526020016003808111156200045357634e487b7160e01b600052602160045260246000fd5b8152602860208083019190915260646040830152601960609092019190915281518051601f926200048992849291019062000610565b50602082015160018083018054909160ff1990911690836003811115620004c057634e487b7160e01b600052602160045260246000fd5b02179055506040820151816002015560608201518160030155608082015181600401559050506040518060400160405280600060ff168152602001600160ff1681525060246000600260038111156200052957634e487b7160e01b600052602160045260246000fd5b60038111156200054957634e487b7160e01b600052602160045260246000fd5b81526020810191909152604001600020620005669160026200069f565b506040805180820190915260008082526002602080840182905260019092526024909152620005b7917fbbbb3b1da0cb0951f34c5e9db4606f934b7367b5284f29163e9e6fe67e1e97d6916200069f565b5060408051808201909152600080825260036020808401919091529080526024905262000608907fb7634ec2165a7280a285aac3ec10cf370eca86d8aa9d3243c90b2151434091ad9060026200069f565b505062000822565b8280546200061e90620007cf565b90600052602060002090601f0160209004810192826200064257600085556200068d565b82601f106200065d57805160ff19168380011785556200068d565b828001600101855582156200068d579182015b828111156200068d57825182559160200191906001019062000670565b506200069b929150620006e2565b5090565b8280548282559060005260206000209081019282156200068d579160200282015b828111156200068d578251829060ff16905591602001919060010190620006c0565b5b808211156200069b5760008155600101620006e3565b600060208083850312156200070c578182fd5b82516001600160401b038082111562000723578384fd5b818501915085601f83011262000737578384fd5b8151818111156200074c576200074c6200080c565b604051601f8201601f19908116603f011681019083821181831017156200077757620007776200080c565b8160405282815288868487010111156200078f578687fd5b8693505b82841015620007b2578484018601518185018701529285019262000793565b82841115620007c357868684830101525b98975050505050505050565b600181811c90821680620007e457607f821691505b602082108114156200080657634e487b7160e01b600052602260045260246000fd5b50919050565b634e487b7160e01b600052604160045260246000fd5b611fbc80620008326000396000f3fe608060405234801561001057600080fd5b50600436106101375760003560e01c80636352211e116100b8578063a22cb4651161007c578063a22cb4651461027c578063b51f8fd21461028f578063b88d4fde146102b7578063c87b56dd146102ca578063e6755ff9146102dd578063e985e9c51461030557600080fd5b80636352211e1461022a578063691562a01461023d57806370a08231146102505780638da5cb5b1461026357806395d89b411461027457600080fd5b806323b872dd116100ff57806323b872dd146101cb5780632f745c59146101de57806342842e0e146101f157806342966c68146102045780634f6ccce71461021757600080fd5b806301ffc9a71461013c57806306fdde0314610164578063081812fc14610179578063095ea7b3146101a457806318160ddd146101b9575b600080fd5b61014f61014a366004611c97565b610341565b60405190151581526020015b60405180910390f35b61016c610352565b60405161015b9190611d9f565b61018c610187366004611ccf565b6103e4565b6040516001600160a01b03909116815260200161015b565b6101b76101b2366004611c6e565b61047e565b005b6008545b60405190815260200161015b565b6101b76101d9366004611af6565b610594565b6101bd6101ec366004611c6e565b6105c6565b6101b76101ff366004611af6565b61065c565b6101b7610212366004611ccf565b610677565b6101bd610225366004611ccf565b6106f1565b61018c610238366004611ccf565b610792565b6101b761024b366004611c40565b610809565b6101bd61025e366004611aaa565b610d18565b600c546001600160a01b031661018c565b61016c610d9f565b6101b761028a366004611c06565b610dae565b6101bd61029d366004611ccf565b6000908152600d6020526040902060060180544290915590565b6101b76102c5366004611b31565b610e73565b61016c6102d8366004611ccf565b610eab565b6101bd6102eb366004611ccf565b6000908152600d6020526040902060070180544290915590565b61014f610313366004611ac4565b6001600160a01b03918216600090815260056020908152604080832093909416825291909152205460ff1690565b600061034c82610f86565b92915050565b60606000805461036190611ec4565b80601f016020809104026020016040519081016040528092919081815260200182805461038d90611ec4565b80156103da5780601f106103af576101008083540402835291602001916103da565b820191906000526020600020905b8154815290600101906020018083116103bd57829003601f168201915b5050505050905090565b6000818152600260205260408120546001600160a01b03166104625760405162461bcd60e51b815260206004820152602c60248201527f4552433732313a20617070726f76656420717565727920666f72206e6f6e657860448201526b34b9ba32b73a103a37b5b2b760a11b60648201526084015b60405180910390fd5b506000908152600460205260409020546001600160a01b031690565b600061048982610792565b9050806001600160a01b0316836001600160a01b031614156104f75760405162461bcd60e51b815260206004820152602160248201527f4552433732313a20617070726f76616c20746f2063757272656e74206f776e656044820152603960f91b6064820152608401610459565b336001600160a01b038216148061051357506105138133610313565b6105855760405162461bcd60e51b815260206004820152603860248201527f4552433732313a20617070726f76652063616c6c6572206973206e6f74206f7760448201527f6e6572206e6f7220617070726f76656420666f7220616c6c00000000000000006064820152608401610459565b61058f8383610fab565b505050565b61059f335b82611019565b6105bb5760405162461bcd60e51b815260040161045990611e04565b61058f838383611110565b60006105d183610d18565b82106106335760405162461bcd60e51b815260206004820152602b60248201527f455243373231456e756d657261626c653a206f776e657220696e646578206f7560448201526a74206f6620626f756e647360a81b6064820152608401610459565b506001600160a01b03919091166000908152600660209081526040808320938352929052205490565b61058f83838360405180602001604052806000815250610e73565b61068033610599565b6106e55760405162461bcd60e51b815260206004820152603060248201527f4552433732314275726e61626c653a2063616c6c6572206973206e6f74206f7760448201526f1b995c881b9bdc88185c1c1c9bdd995960821b6064820152608401610459565b6106ee816112bb565b50565b60006106fc60085490565b821061075f5760405162461bcd60e51b815260206004820152602c60248201527f455243373231456e756d657261626c653a20676c6f62616c20696e646578206f60448201526b7574206f6620626f756e647360a01b6064820152608401610459565b6008828154811061078057634e487b7160e01b600052603260045260246000fd5b90600052602060002001549050919050565b6000818152600260205260408120546001600160a01b03168061034c5760405162461bcd60e51b815260206004820152602960248201527f4552433732313a206f776e657220717565727920666f72206e6f6e657869737460448201526832b73a103a37b5b2b760b91b6064820152608401610459565b600c546001600160a01b031633146108635760405162461bcd60e51b815260206004820181905260248201527f4f776e61626c653a2063616c6c6572206973206e6f7420746865206f776e65726044820152606401610459565b600061086e600a5490565b905061087a8382611362565b600382600381111561089c57634e487b7160e01b600052602160045260246000fd5b14610aaa576000600f60008460038111156108c757634e487b7160e01b600052602160045260246000fd5b60038111156108e657634e487b7160e01b600052602160045260246000fd5b815260200190815260200160002080549050423360405160200161090b929190611d42565b6040516020818303038152906040528051906020012060001c61092e9190611f1a565b90506000600f600085600381111561095657634e487b7160e01b600052602160045260246000fd5b600381111561097557634e487b7160e01b600052602160045260246000fd5b815260200190815260200160002082815481106109a257634e487b7160e01b600052603260045260246000fd5b906000526020600020015490506040518061012001604052808281526020016001815260200160008152602001600a8152602001600a8152602001600a81526020014281526020014281526020016040518060800160405280600060ff168152602001600060ff168152602001600060ff168152602001600060ff16815250815250600d6000858152602001908152602001600020600082015181600001556020820151816001015560408201518160020155606082015181600301556080820151816004015560a0820151816005015560c0820151816006015560e0820151816007015561010082015181600801906004610a9f9291906119e6565b509050505050610d0a565b600060044233604051602001610ac1929190611d42565b6040516020818303038152906040528051906020012060001c610ae49190611f1a565b6003811115610b0357634e487b7160e01b600052602160045260246000fd5b90506000600f6000836003811115610b2b57634e487b7160e01b600052602160045260246000fd5b6003811115610b4a57634e487b7160e01b600052602160045260246000fd5b8152602001908152602001600020805490504233604051602001610b6f929190611d42565b6040516020818303038152906040528051906020012060001c610b929190611f1a565b90506000600f6000866003811115610bba57634e487b7160e01b600052602160045260246000fd5b6003811115610bd957634e487b7160e01b600052602160045260246000fd5b81526020019081526020016000208281548110610c0657634e487b7160e01b600052603260045260246000fd5b906000526020600020015490506040518061012001604052808281526020016001815260200160008152602001600a8152602001600a8152602001600a81526020014281526020014281526020016040518060800160405280600060ff168152602001600060ff168152602001600060ff168152602001600060ff16815250815250600d6000868152602001908152602001600020600082015181600001556020820151816001015560408201518160020155606082015181600301556080820151816004015560a0820151816005015560c0820151816006015560e0820151816007015561010082015181600801906004610d039291906119e6565b5050505050505b61058f600a80546001019055565b60006001600160a01b038216610d835760405162461bcd60e51b815260206004820152602a60248201527f4552433732313a2062616c616e636520717565727920666f7220746865207a65604482015269726f206164647265737360b01b6064820152608401610459565b506001600160a01b031660009081526003602052604090205490565b60606001805461036190611ec4565b6001600160a01b038216331415610e075760405162461bcd60e51b815260206004820152601960248201527f4552433732313a20617070726f766520746f2063616c6c6572000000000000006044820152606401610459565b3360008181526005602090815260408083206001600160a01b03871680855290835292819020805460ff191686151590811790915590519081529192917f17307eab39ab6107e8899845ad3d59bd9653f200f220920489ca2b5937696c31910160405180910390a35050565b610e7d3383611019565b610e995760405162461bcd60e51b815260040161045990611e04565b610ea5848484846114b0565b50505050565b6000818152600260205260409020546060906001600160a01b0316610f2a5760405162461bcd60e51b815260206004820152602f60248201527f4552433732314d657461646174613a2055524920717565727920666f72206e6f60448201526e3732bc34b9ba32b73a103a37b5b2b760891b6064820152608401610459565b6000610f346114e3565b90506000815111610f545760405180602001604052806000815250610f7f565b80610f5e846114f2565b604051602001610f6f929190611d13565b6040516020818303038152906040525b9392505050565b60006001600160e01b0319821663780e9d6360e01b148061034c575061034c8261160c565b600081815260046020526040902080546001600160a01b0319166001600160a01b0384169081179091558190610fe082610792565b6001600160a01b03167f8c5be1e5ebec7d5bd14f71427d1e84f3dd0314c0f7b2291e5b200ac8c7c3b92560405160405180910390a45050565b6000818152600260205260408120546001600160a01b03166110925760405162461bcd60e51b815260206004820152602c60248201527f4552433732313a206f70657261746f7220717565727920666f72206e6f6e657860448201526b34b9ba32b73a103a37b5b2b760a11b6064820152608401610459565b600061109d83610792565b9050806001600160a01b0316846001600160a01b031614806110d85750836001600160a01b03166110cd846103e4565b6001600160a01b0316145b8061110857506001600160a01b0380821660009081526005602090815260408083209388168352929052205460ff165b949350505050565b826001600160a01b031661112382610792565b6001600160a01b03161461118b5760405162461bcd60e51b815260206004820152602960248201527f4552433732313a207472616e73666572206f6620746f6b656e2074686174206960448201526839903737ba1037bbb760b91b6064820152608401610459565b6001600160a01b0382166111ed5760405162461bcd60e51b8152602060048201526024808201527f4552433732313a207472616e7366657220746f20746865207a65726f206164646044820152637265737360e01b6064820152608401610459565b6111f883838361165c565b611203600082610fab565b6001600160a01b038316600090815260036020526040812080546001929061122c908490611e81565b90915550506001600160a01b038216600090815260036020526040812080546001929061125a908490611e55565b909155505060008181526002602052604080822080546001600160a01b0319166001600160a01b0386811691821790925591518493918716917fddf252ad1be2c89b69c2b068fc378daa952ba7f163c4a11628f55a4df523b3ef91a4505050565b60006112c682610792565b90506112d48160008461165c565b6112df600083610fab565b6001600160a01b0381166000908152600360205260408120805460019290611308908490611e81565b909155505060008281526002602052604080822080546001600160a01b0319169055518391906001600160a01b038416907fddf252ad1be2c89b69c2b068fc378daa952ba7f163c4a11628f55a4df523b3ef908390a45050565b6001600160a01b0382166113b85760405162461bcd60e51b815260206004820181905260248201527f4552433732313a206d696e7420746f20746865207a65726f20616464726573736044820152606401610459565b6000818152600260205260409020546001600160a01b03161561141d5760405162461bcd60e51b815260206004820152601c60248201527f4552433732313a20746f6b656e20616c7265616479206d696e746564000000006044820152606401610459565b6114296000838361165c565b6001600160a01b0382166000908152600360205260408120805460019290611452908490611e55565b909155505060008181526002602052604080822080546001600160a01b0319166001600160a01b03861690811790915590518392907fddf252ad1be2c89b69c2b068fc378daa952ba7f163c4a11628f55a4df523b3ef908290a45050565b6114bb848484611110565b6114c784848484611667565b610ea55760405162461bcd60e51b815260040161045990611db2565b6060600b805461036190611ec4565b6060816115165750506040805180820190915260018152600360fc1b602082015290565b8160005b8115611540578061152a81611eff565b91506115399050600a83611e6d565b915061151a565b60008167ffffffffffffffff81111561156957634e487b7160e01b600052604160045260246000fd5b6040519080825280601f01601f191660200182016040528015611593576020820181803683370190505b5090505b8415611108576115a8600183611e81565b91506115b5600a86611f1a565b6115c0906030611e55565b60f81b8183815181106115e357634e487b7160e01b600052603260045260246000fd5b60200101906001600160f81b031916908160001a905350611605600a86611e6d565b9450611597565b60006001600160e01b031982166380ac58cd60e01b148061163d57506001600160e01b03198216635b5e139f60e01b145b8061034c57506301ffc9a760e01b6001600160e01b031983161461034c565b61058f838383611774565b60006001600160a01b0384163b1561176957604051630a85bd0160e11b81526001600160a01b0385169063150b7a02906116ab903390899088908890600401611d62565b602060405180830381600087803b1580156116c557600080fd5b505af19250505080156116f5575060408051601f3d908101601f191682019092526116f291810190611cb3565b60015b61174f573d808015611723576040519150601f19603f3d011682016040523d82523d6000602084013e611728565b606091505b5080516117475760405162461bcd60e51b815260040161045990611db2565b805181602001fd5b6001600160e01b031916630a85bd0160e11b149050611108565b506001949350505050565b6001600160a01b0383166117cf576117ca81600880546000838152600960205260408120829055600182018355919091527ff3f7a9fe364faab93b216da50a3214154f22a0a2b415b23a84c8169e8b636ee30155565b6117f2565b816001600160a01b0316836001600160a01b0316146117f2576117f2838261182c565b6001600160a01b0382166118095761058f816118c9565b826001600160a01b0316826001600160a01b03161461058f5761058f82826119a2565b6000600161183984610d18565b6118439190611e81565b600083815260076020526040902054909150808214611896576001600160a01b03841660009081526006602090815260408083208584528252808320548484528184208190558352600790915290208190555b5060009182526007602090815260408084208490556001600160a01b039094168352600681528383209183525290812055565b6008546000906118db90600190611e81565b6000838152600960205260408120546008805493945090928490811061191157634e487b7160e01b600052603260045260246000fd5b90600052602060002001549050806008838154811061194057634e487b7160e01b600052603260045260246000fd5b600091825260208083209091019290925582815260099091526040808220849055858252812055600880548061198657634e487b7160e01b600052603160045260246000fd5b6001900381819060005260206000200160009055905550505050565b60006119ad83610d18565b6001600160a01b039093166000908152600660209081526040808320868452825280832085905593825260079052919091209190915550565b600183019183908215611a695791602002820160005b83821115611a3a57835183826101000a81548160ff021916908360ff16021790555092602001926001016020816000010492830192600103026119fc565b8015611a675782816101000a81549060ff0219169055600101602081600001049283019260010302611a3a565b505b50611a75929150611a79565b5090565b5b80821115611a755760008155600101611a7a565b80356001600160a01b0381168114611aa557600080fd5b919050565b600060208284031215611abb578081fd5b610f7f82611a8e565b60008060408385031215611ad6578081fd5b611adf83611a8e565b9150611aed60208401611a8e565b90509250929050565b600080600060608486031215611b0a578081fd5b611b1384611a8e565b9250611b2160208501611a8e565b9150604084013590509250925092565b60008060008060808587031215611b46578081fd5b611b4f85611a8e565b9350611b5d60208601611a8e565b925060408501359150606085013567ffffffffffffffff80821115611b80578283fd5b818701915087601f830112611b93578283fd5b813581811115611ba557611ba5611f5a565b604051601f8201601f19908116603f01168101908382118183101715611bcd57611bcd611f5a565b816040528281528a6020848701011115611be5578586fd5b82602086016020830137918201602001949094529598949750929550505050565b60008060408385031215611c18578182fd5b611c2183611a8e565b915060208301358015158114611c35578182fd5b809150509250929050565b60008060408385031215611c52578182fd5b611c5b83611a8e565b9150602083013560048110611c35578182fd5b60008060408385031215611c80578182fd5b611c8983611a8e565b946020939093013593505050565b600060208284031215611ca8578081fd5b8135610f7f81611f70565b600060208284031215611cc4578081fd5b8151610f7f81611f70565b600060208284031215611ce0578081fd5b5035919050565b60008151808452611cff816020860160208601611e98565b601f01601f19169290920160200192915050565b60008351611d25818460208801611e98565b835190830190611d39818360208801611e98565b01949350505050565b91825260601b6bffffffffffffffffffffffff1916602082015260340190565b6001600160a01b0385811682528416602082015260408101839052608060608201819052600090611d9590830184611ce7565b9695505050505050565b602081526000610f7f6020830184611ce7565b60208082526032908201527f4552433732313a207472616e7366657220746f206e6f6e20455243373231526560408201527131b2b4bb32b91034b6b83632b6b2b73a32b960711b606082015260800190565b60208082526031908201527f4552433732313a207472616e736665722063616c6c6572206973206e6f74206f6040820152701ddb995c881b9bdc88185c1c1c9bdd9959607a1b606082015260800190565b60008219821115611e6857611e68611f2e565b500190565b600082611e7c57611e7c611f44565b500490565b600082821015611e9357611e93611f2e565b500390565b60005b83811015611eb3578181015183820152602001611e9b565b83811115610ea55750506000910152565b600181811c90821680611ed857607f821691505b60208210811415611ef957634e487b7160e01b600052602260045260246000fd5b50919050565b6000600019821415611f1357611f13611f2e565b5060010190565b600082611f2957611f29611f44565b500690565b634e487b7160e01b600052601160045260246000fd5b634e487b7160e01b600052601260045260246000fd5b634e487b7160e01b600052604160045260246000fd5b6001600160e01b0319811681146106ee57600080fdfea26469706673582212207ff1c990f433033ccf414583bf6891d4000dd3e4ee774fcf80d359c2d446931364736f6c63430008040033",
    "sourcePath": "c:/Users/hbnat/Desktop/cryptures/cryptures.sol",
    "compiler": {
        "name": "solc",
        "version": "0.8.4+commit.c7e474f2"
    },
    "functionHashes": {
        "approve(address,uint256)": "095ea7b3",
        "balanceOf(address)": "70a08231",
        "burn(uint256)": "42966c68",
        "feedCreatureFromId(uint256)": "b51f8fd2",
        "getApproved(uint256)": "081812fc",
        "isApprovedForAll(address,address)": "e985e9c5",
        "mint(address,uint8)": "691562a0",
        "name()": "06fdde03",
        "owner()": "8da5cb5b",
        "ownerOf(uint256)": "6352211e",
        "safeTransferFrom(address,address,uint256)": "42842e0e",
        "safeTransferFrom(address,address,uint256,bytes)": "b88d4fde",
        "setApprovalForAll(address,bool)": "a22cb465",
        "supportsInterface(bytes4)": "01ffc9a7",
        "symbol()": "95d89b41",
        "tokenByIndex(uint256)": "4f6ccce7",
        "tokenOfOwnerByIndex(address,uint256)": "2f745c59",
        "tokenURI(uint256)": "c87b56dd",
        "totalSupply()": "18160ddd",
        "transferFrom(address,address,uint256)": "23b872dd",
        "washCreatureFromId(uint256)": "e6755ff9"
    },
    "gasEstimates": {
        "creation": {
            "codeDepositCost": "1624800",
            "executionCost": "infinite",
            "totalCost": "infinite"
        },
        "external": {
            "approve(address,uint256)": "infinite",
            "balanceOf(address)": "1356",
            "burn(uint256)": "infinite",
            "feedCreatureFromId(uint256)": "21199",
            "getApproved(uint256)": "2160",
            "isApprovedForAll(address,address)": "infinite",
            "mint(address,uint8)": "infinite",
            "name()": "infinite",
            "owner()": "1120",
            "ownerOf(uint256)": "1279",
            "safeTransferFrom(address,address,uint256)": "infinite",
            "safeTransferFrom(address,address,uint256,bytes)": "infinite",
            "setApprovalForAll(address,bool)": "23250",
            "supportsInterface(bytes4)": "infinite",
            "symbol()": "infinite",
            "tokenByIndex(uint256)": "2926",
            "tokenOfOwnerByIndex(address,uint256)": "2375",
            "tokenURI(uint256)": "infinite",
            "totalSupply()": "1093",
            "transferFrom(address,address,uint256)": "infinite",
            "washCreatureFromId(uint256)": "21265"
        },
        "internal": {
            "_baseURI()": "infinite",
            "_beforeTokenTransfer(address,address,uint256)": "infinite"
        }
    }
}