{
    "contractName": "Cryptures",
    "abi": [
        {
            "inputs": [
                {
                    "internalType": "string",
                    "name": "baseTokenURI",
                    "type": "string"
                }
            ],
            "stateMutability": "nonpayable",
            "type": "constructor"
        },
        {
            "anonymous": false,
            "inputs": [
                {
                    "indexed": true,
                    "internalType": "address",
                    "name": "owner",
                    "type": "address"
                },
                {
                    "indexed": true,
                    "internalType": "address",
                    "name": "approved",
                    "type": "address"
                },
                {
                    "indexed": true,
                    "internalType": "uint256",
                    "name": "tokenId",
                    "type": "uint256"
                }
            ],
            "name": "Approval",
            "type": "event"
        },
        {
            "anonymous": false,
            "inputs": [
                {
                    "indexed": true,
                    "internalType": "address",
                    "name": "owner",
                    "type": "address"
                },
                {
                    "indexed": true,
                    "internalType": "address",
                    "name": "operator",
                    "type": "address"
                },
                {
                    "indexed": false,
                    "internalType": "bool",
                    "name": "approved",
                    "type": "bool"
                }
            ],
            "name": "ApprovalForAll",
            "type": "event"
        },
        {
            "anonymous": false,
            "inputs": [
                {
                    "indexed": true,
                    "internalType": "address",
                    "name": "from",
                    "type": "address"
                },
                {
                    "indexed": true,
                    "internalType": "address",
                    "name": "to",
                    "type": "address"
                },
                {
                    "indexed": true,
                    "internalType": "uint256",
                    "name": "tokenId",
                    "type": "uint256"
                }
            ],
            "name": "Transfer",
            "type": "event"
        },
        {
            "inputs": [
                {
                    "internalType": "address",
                    "name": "to",
                    "type": "address"
                },
                {
                    "internalType": "uint256",
                    "name": "tokenId",
                    "type": "uint256"
                }
            ],
            "name": "approve",
            "outputs": [],
            "stateMutability": "nonpayable",
            "type": "function"
        },
        {
            "inputs": [
                {
                    "internalType": "address",
                    "name": "owner",
                    "type": "address"
                }
            ],
            "name": "balanceOf",
            "outputs": [
                {
                    "internalType": "uint256",
                    "name": "",
                    "type": "uint256"
                }
            ],
            "stateMutability": "view",
            "type": "function"
        },
        {
            "inputs": [
                {
                    "internalType": "uint256",
                    "name": "tokenId",
                    "type": "uint256"
                }
            ],
            "name": "burn",
            "outputs": [],
            "stateMutability": "nonpayable",
            "type": "function"
        },
        {
            "inputs": [
                {
                    "internalType": "uint256",
                    "name": "id",
                    "type": "uint256"
                }
            ],
            "name": "feedCreatureFromId",
            "outputs": [
                {
                    "internalType": "uint256",
                    "name": "",
                    "type": "uint256"
                }
            ],
            "stateMutability": "nonpayable",
            "type": "function"
        },
        {
            "inputs": [
                {
                    "internalType": "uint256",
                    "name": "tokenId",
                    "type": "uint256"
                }
            ],
            "name": "getApproved",
            "outputs": [
                {
                    "internalType": "address",
                    "name": "",
                    "type": "address"
                }
            ],
            "stateMutability": "view",
            "type": "function"
        },
        {
            "inputs": [
                {
                    "internalType": "uint256",
                    "name": "id",
                    "type": "uint256"
                }
            ],
            "name": "getCryptureAttack",
            "outputs": [
                {
                    "components": [
                        {
                            "internalType": "string",
                            "name": "name",
                            "type": "string"
                        },
                        {
                            "internalType": "enum Cryptures.CryptureAttackType",
                            "name": "attackType",
                            "type": "uint8"
                        },
                        {
                            "internalType": "enum Cryptures.CryptureAttackCategory",
                            "name": "category",
                            "type": "uint8"
                        },
                        {
                            "internalType": "uint256",
                            "name": "power",
                            "type": "uint256"
                        },
                        {
                            "internalType": "uint256",
                            "name": "precision",
                            "type": "uint256"
                        },
                        {
                            "internalType": "uint256",
                            "name": "timesToUse",
                            "type": "uint256"
                        }
                    ],
                    "internalType": "struct Cryptures.CryptureAttack",
                    "name": "",
                    "type": "tuple"
                }
            ],
            "stateMutability": "view",
            "type": "function"
        },
        {
            "inputs": [
                {
                    "internalType": "uint256",
                    "name": "id",
                    "type": "uint256"
                }
            ],
            "name": "getCryptureBaseStats",
            "outputs": [
                {
                    "components": [
                        {
                            "internalType": "enum Cryptures.CrypturesType",
                            "name": "cryptureType",
                            "type": "uint8"
                        },
                        {
                            "components": [
                                {
                                    "internalType": "uint256",
                                    "name": "min",
                                    "type": "uint256"
                                },
                                {
                                    "internalType": "uint256",
                                    "name": "max",
                                    "type": "uint256"
                                }
                            ],
                            "internalType": "struct Cryptures.MinMax",
                            "name": "healthPoints",
                            "type": "tuple"
                        },
                        {
                            "components": [
                                {
                                    "internalType": "uint256",
                                    "name": "min",
                                    "type": "uint256"
                                },
                                {
                                    "internalType": "uint256",
                                    "name": "max",
                                    "type": "uint256"
                                }
                            ],
                            "internalType": "struct Cryptures.MinMax",
                            "name": "attack",
                            "type": "tuple"
                        },
                        {
                            "components": [
                                {
                                    "internalType": "uint256",
                                    "name": "min",
                                    "type": "uint256"
                                },
                                {
                                    "internalType": "uint256",
                                    "name": "max",
                                    "type": "uint256"
                                }
                            ],
                            "internalType": "struct Cryptures.MinMax",
                            "name": "defense",
                            "type": "tuple"
                        },
                        {
                            "components": [
                                {
                                    "internalType": "uint256",
                                    "name": "min",
                                    "type": "uint256"
                                },
                                {
                                    "internalType": "uint256",
                                    "name": "max",
                                    "type": "uint256"
                                }
                            ],
                            "internalType": "struct Cryptures.MinMax",
                            "name": "speed",
                            "type": "tuple"
                        },
                        {
                            "components": [
                                {
                                    "internalType": "uint256",
                                    "name": "min",
                                    "type": "uint256"
                                },
                                {
                                    "internalType": "uint256",
                                    "name": "max",
                                    "type": "uint256"
                                }
                            ],
                            "internalType": "struct Cryptures.MinMax",
                            "name": "specialAttack",
                            "type": "tuple"
                        },
                        {
                            "components": [
                                {
                                    "internalType": "uint256",
                                    "name": "min",
                                    "type": "uint256"
                                },
                                {
                                    "internalType": "uint256",
                                    "name": "max",
                                    "type": "uint256"
                                }
                            ],
                            "internalType": "struct Cryptures.MinMax",
                            "name": "specialDefense",
                            "type": "tuple"
                        }
                    ],
                    "internalType": "struct Cryptures.CryptureBaseStats",
                    "name": "",
                    "type": "tuple"
                }
            ],
            "stateMutability": "view",
            "type": "function"
        },
        {
            "inputs": [
                {
                    "internalType": "uint256",
                    "name": "id",
                    "type": "uint256"
                }
            ],
            "name": "getCryptureCompleteInfo",
            "outputs": [
                {
                    "components": [
                        {
                            "internalType": "uint256",
                            "name": "id",
                            "type": "uint256"
                        },
                        {
                            "internalType": "uint8",
                            "name": "level",
                            "type": "uint8"
                        },
                        {
                            "internalType": "uint256",
                            "name": "xp",
                            "type": "uint256"
                        },
                        {
                            "internalType": "uint256",
                            "name": "wins",
                            "type": "uint256"
                        },
                        {
                            "internalType": "uint256",
                            "name": "losses",
                            "type": "uint256"
                        },
                        {
                            "internalType": "uint256",
                            "name": "fedDate",
                            "type": "uint256"
                        },
                        {
                            "internalType": "uint256",
                            "name": "washedDate",
                            "type": "uint256"
                        },
                        {
                            "internalType": "enum Cryptures.CrypturesType",
                            "name": "cryptureType",
                            "type": "uint8"
                        },
                        {
                            "internalType": "uint256",
                            "name": "healthPoints",
                            "type": "uint256"
                        },
                        {
                            "internalType": "uint256",
                            "name": "attack",
                            "type": "uint256"
                        },
                        {
                            "internalType": "uint256",
                            "name": "defense",
                            "type": "uint256"
                        },
                        {
                            "internalType": "uint256",
                            "name": "speed",
                            "type": "uint256"
                        },
                        {
                            "internalType": "uint256",
                            "name": "specialAttack",
                            "type": "uint256"
                        },
                        {
                            "internalType": "uint256",
                            "name": "specialDefense",
                            "type": "uint256"
                        },
                        {
                            "components": [
                                {
                                    "internalType": "string",
                                    "name": "name",
                                    "type": "string"
                                },
                                {
                                    "internalType": "enum Cryptures.CryptureAttackType",
                                    "name": "attackType",
                                    "type": "uint8"
                                },
                                {
                                    "internalType": "enum Cryptures.CryptureAttackCategory",
                                    "name": "category",
                                    "type": "uint8"
                                },
                                {
                                    "internalType": "uint256",
                                    "name": "power",
                                    "type": "uint256"
                                },
                                {
                                    "internalType": "uint256",
                                    "name": "precision",
                                    "type": "uint256"
                                },
                                {
                                    "internalType": "uint256",
                                    "name": "timesToUse",
                                    "type": "uint256"
                                }
                            ],
                            "internalType": "struct Cryptures.CryptureAttack[]",
                            "name": "attacks",
                            "type": "tuple[]"
                        }
                    ],
                    "internalType": "struct Cryptures.CryptureCompleteInfo",
                    "name": "",
                    "type": "tuple"
                }
            ],
            "stateMutability": "view",
            "type": "function"
        },
        {
            "inputs": [
                {
                    "internalType": "uint256",
                    "name": "id",
                    "type": "uint256"
                }
            ],
            "name": "getCryptureInfo",
            "outputs": [
                {
                    "components": [
                        {
                            "internalType": "uint256",
                            "name": "id",
                            "type": "uint256"
                        },
                        {
                            "internalType": "uint8",
                            "name": "level",
                            "type": "uint8"
                        },
                        {
                            "internalType": "uint256",
                            "name": "xp",
                            "type": "uint256"
                        },
                        {
                            "internalType": "uint256",
                            "name": "wins",
                            "type": "uint256"
                        },
                        {
                            "internalType": "uint256",
                            "name": "losses",
                            "type": "uint256"
                        },
                        {
                            "internalType": "uint256",
                            "name": "fedDate",
                            "type": "uint256"
                        },
                        {
                            "internalType": "uint256",
                            "name": "washedDate",
                            "type": "uint256"
                        },
                        {
                            "internalType": "uint8[]",
                            "name": "attacks",
                            "type": "uint8[]"
                        }
                    ],
                    "internalType": "struct Cryptures.CryptureInfo",
                    "name": "",
                    "type": "tuple"
                }
            ],
            "stateMutability": "view",
            "type": "function"
        },
        {
            "inputs": [
                {
                    "components": [
                        {
                            "internalType": "enum Cryptures.CrypturesType",
                            "name": "cryptureType",
                            "type": "uint8"
                        },
                        {
                            "components": [
                                {
                                    "internalType": "uint256",
                                    "name": "min",
                                    "type": "uint256"
                                },
                                {
                                    "internalType": "uint256",
                                    "name": "max",
                                    "type": "uint256"
                                }
                            ],
                            "internalType": "struct Cryptures.MinMax",
                            "name": "healthPoints",
                            "type": "tuple"
                        },
                        {
                            "components": [
                                {
                                    "internalType": "uint256",
                                    "name": "min",
                                    "type": "uint256"
                                },
                                {
                                    "internalType": "uint256",
                                    "name": "max",
                                    "type": "uint256"
                                }
                            ],
                            "internalType": "struct Cryptures.MinMax",
                            "name": "attack",
                            "type": "tuple"
                        },
                        {
                            "components": [
                                {
                                    "internalType": "uint256",
                                    "name": "min",
                                    "type": "uint256"
                                },
                                {
                                    "internalType": "uint256",
                                    "name": "max",
                                    "type": "uint256"
                                }
                            ],
                            "internalType": "struct Cryptures.MinMax",
                            "name": "defense",
                            "type": "tuple"
                        },
                        {
                            "components": [
                                {
                                    "internalType": "uint256",
                                    "name": "min",
                                    "type": "uint256"
                                },
                                {
                                    "internalType": "uint256",
                                    "name": "max",
                                    "type": "uint256"
                                }
                            ],
                            "internalType": "struct Cryptures.MinMax",
                            "name": "speed",
                            "type": "tuple"
                        },
                        {
                            "components": [
                                {
                                    "internalType": "uint256",
                                    "name": "min",
                                    "type": "uint256"
                                },
                                {
                                    "internalType": "uint256",
                                    "name": "max",
                                    "type": "uint256"
                                }
                            ],
                            "internalType": "struct Cryptures.MinMax",
                            "name": "specialAttack",
                            "type": "tuple"
                        },
                        {
                            "components": [
                                {
                                    "internalType": "uint256",
                                    "name": "min",
                                    "type": "uint256"
                                },
                                {
                                    "internalType": "uint256",
                                    "name": "max",
                                    "type": "uint256"
                                }
                            ],
                            "internalType": "struct Cryptures.MinMax",
                            "name": "specialDefense",
                            "type": "tuple"
                        }
                    ],
                    "internalType": "struct Cryptures.CryptureBaseStats",
                    "name": "baseStats",
                    "type": "tuple"
                },
                {
                    "internalType": "uint256",
                    "name": "level",
                    "type": "uint256"
                }
            ],
            "name": "getStatByLevel",
            "outputs": [
                {
                    "components": [
                        {
                            "internalType": "enum Cryptures.CrypturesType",
                            "name": "cryptureType",
                            "type": "uint8"
                        },
                        {
                            "internalType": "uint256",
                            "name": "healthPoints",
                            "type": "uint256"
                        },
                        {
                            "internalType": "uint256",
                            "name": "attack",
                            "type": "uint256"
                        },
                        {
                            "internalType": "uint256",
                            "name": "defense",
                            "type": "uint256"
                        },
                        {
                            "internalType": "uint256",
                            "name": "speed",
                            "type": "uint256"
                        },
                        {
                            "internalType": "uint256",
                            "name": "specialAttack",
                            "type": "uint256"
                        },
                        {
                            "internalType": "uint256",
                            "name": "specialDefense",
                            "type": "uint256"
                        }
                    ],
                    "internalType": "struct Cryptures.CryptureStats",
                    "name": "",
                    "type": "tuple"
                }
            ],
            "stateMutability": "pure",
            "type": "function"
        },
        {
            "inputs": [
                {
                    "internalType": "uint256",
                    "name": "firstCryptureId",
                    "type": "uint256"
                },
                {
                    "internalType": "uint256",
                    "name": "secondCryptureId",
                    "type": "uint256"
                }
            ],
            "name": "getWinnerBattle",
            "outputs": [
                {
                    "components": [
                        {
                            "internalType": "address",
                            "name": "winnerAddress",
                            "type": "address"
                        },
                        {
                            "components": [
                                {
                                    "internalType": "uint256",
                                    "name": "id",
                                    "type": "uint256"
                                },
                                {
                                    "internalType": "uint8",
                                    "name": "level",
                                    "type": "uint8"
                                },
                                {
                                    "internalType": "uint256",
                                    "name": "xp",
                                    "type": "uint256"
                                },
                                {
                                    "internalType": "uint256",
                                    "name": "wins",
                                    "type": "uint256"
                                },
                                {
                                    "internalType": "uint256",
                                    "name": "losses",
                                    "type": "uint256"
                                },
                                {
                                    "internalType": "uint256",
                                    "name": "fedDate",
                                    "type": "uint256"
                                },
                                {
                                    "internalType": "uint256",
                                    "name": "washedDate",
                                    "type": "uint256"
                                },
                                {
                                    "internalType": "enum Cryptures.CrypturesType",
                                    "name": "cryptureType",
                                    "type": "uint8"
                                },
                                {
                                    "internalType": "uint256",
                                    "name": "healthPoints",
                                    "type": "uint256"
                                },
                                {
                                    "internalType": "uint256",
                                    "name": "attack",
                                    "type": "uint256"
                                },
                                {
                                    "internalType": "uint256",
                                    "name": "defense",
                                    "type": "uint256"
                                },
                                {
                                    "internalType": "uint256",
                                    "name": "speed",
                                    "type": "uint256"
                                },
                                {
                                    "internalType": "uint256",
                                    "name": "specialAttack",
                                    "type": "uint256"
                                },
                                {
                                    "internalType": "uint256",
                                    "name": "specialDefense",
                                    "type": "uint256"
                                },
                                {
                                    "components": [
                                        {
                                            "internalType": "string",
                                            "name": "name",
                                            "type": "string"
                                        },
                                        {
                                            "internalType": "enum Cryptures.CryptureAttackType",
                                            "name": "attackType",
                                            "type": "uint8"
                                        },
                                        {
                                            "internalType": "enum Cryptures.CryptureAttackCategory",
                                            "name": "category",
                                            "type": "uint8"
                                        },
                                        {
                                            "internalType": "uint256",
                                            "name": "power",
                                            "type": "uint256"
                                        },
                                        {
                                            "internalType": "uint256",
                                            "name": "precision",
                                            "type": "uint256"
                                        },
                                        {
                                            "internalType": "uint256",
                                            "name": "timesToUse",
                                            "type": "uint256"
                                        }
                                    ],
                                    "internalType": "struct Cryptures.CryptureAttack[]",
                                    "name": "attacks",
                                    "type": "tuple[]"
                                }
                            ],
                            "internalType": "struct Cryptures.CryptureCompleteInfo",
                            "name": "firstCryptureCompleteInfo",
                            "type": "tuple"
                        },
                        {
                            "components": [
                                {
                                    "internalType": "uint256",
                                    "name": "id",
                                    "type": "uint256"
                                },
                                {
                                    "internalType": "uint8",
                                    "name": "level",
                                    "type": "uint8"
                                },
                                {
                                    "internalType": "uint256",
                                    "name": "xp",
                                    "type": "uint256"
                                },
                                {
                                    "internalType": "uint256",
                                    "name": "wins",
                                    "type": "uint256"
                                },
                                {
                                    "internalType": "uint256",
                                    "name": "losses",
                                    "type": "uint256"
                                },
                                {
                                    "internalType": "uint256",
                                    "name": "fedDate",
                                    "type": "uint256"
                                },
                                {
                                    "internalType": "uint256",
                                    "name": "washedDate",
                                    "type": "uint256"
                                },
                                {
                                    "internalType": "enum Cryptures.CrypturesType",
                                    "name": "cryptureType",
                                    "type": "uint8"
                                },
                                {
                                    "internalType": "uint256",
                                    "name": "healthPoints",
                                    "type": "uint256"
                                },
                                {
                                    "internalType": "uint256",
                                    "name": "attack",
                                    "type": "uint256"
                                },
                                {
                                    "internalType": "uint256",
                                    "name": "defense",
                                    "type": "uint256"
                                },
                                {
                                    "internalType": "uint256",
                                    "name": "speed",
                                    "type": "uint256"
                                },
                                {
                                    "internalType": "uint256",
                                    "name": "specialAttack",
                                    "type": "uint256"
                                },
                                {
                                    "internalType": "uint256",
                                    "name": "specialDefense",
                                    "type": "uint256"
                                },
                                {
                                    "components": [
                                        {
                                            "internalType": "string",
                                            "name": "name",
                                            "type": "string"
                                        },
                                        {
                                            "internalType": "enum Cryptures.CryptureAttackType",
                                            "name": "attackType",
                                            "type": "uint8"
                                        },
                                        {
                                            "internalType": "enum Cryptures.CryptureAttackCategory",
                                            "name": "category",
                                            "type": "uint8"
                                        },
                                        {
                                            "internalType": "uint256",
                                            "name": "power",
                                            "type": "uint256"
                                        },
                                        {
                                            "internalType": "uint256",
                                            "name": "precision",
                                            "type": "uint256"
                                        },
                                        {
                                            "internalType": "uint256",
                                            "name": "timesToUse",
                                            "type": "uint256"
                                        }
                                    ],
                                    "internalType": "struct Cryptures.CryptureAttack[]",
                                    "name": "attacks",
                                    "type": "tuple[]"
                                }
                            ],
                            "internalType": "struct Cryptures.CryptureCompleteInfo",
                            "name": "secondCryptureCompleteInfo",
                            "type": "tuple"
                        },
                        {
                            "components": [
                                {
                                    "components": [
                                        {
                                            "internalType": "uint256",
                                            "name": "first",
                                            "type": "uint256"
                                        },
                                        {
                                            "internalType": "uint256",
                                            "name": "second",
                                            "type": "uint256"
                                        }
                                    ],
                                    "internalType": "struct Cryptures.FirstSecond",
                                    "name": "cryptureChosenAttackId",
                                    "type": "tuple"
                                },
                                {
                                    "components": [
                                        {
                                            "internalType": "uint256",
                                            "name": "first",
                                            "type": "uint256"
                                        },
                                        {
                                            "internalType": "uint256",
                                            "name": "second",
                                            "type": "uint256"
                                        }
                                    ],
                                    "internalType": "struct Cryptures.FirstSecond",
                                    "name": "cryptureAttackDamage",
                                    "type": "tuple"
                                },
                                {
                                    "components": [
                                        {
                                            "internalType": "uint256",
                                            "name": "first",
                                            "type": "uint256"
                                        },
                                        {
                                            "internalType": "uint256",
                                            "name": "second",
                                            "type": "uint256"
                                        }
                                    ],
                                    "internalType": "struct Cryptures.FirstSecond",
                                    "name": "cryptureHealthPoints",
                                    "type": "tuple"
                                }
                            ],
                            "internalType": "struct Cryptures.CryptureBattleRoundInfo[50]",
                            "name": "roundsInfo",
                            "type": "tuple[50]"
                        }
                    ],
                    "internalType": "struct Cryptures.CryptureBattleResultDetails",
                    "name": "",
                    "type": "tuple"
                }
            ],
            "stateMutability": "view",
            "type": "function"
        },
        {
            "inputs": [
                {
                    "internalType": "address",
                    "name": "owner",
                    "type": "address"
                },
                {
                    "internalType": "address",
                    "name": "operator",
                    "type": "address"
                }
            ],
            "name": "isApprovedForAll",
            "outputs": [
                {
                    "internalType": "bool",
                    "name": "",
                    "type": "bool"
                }
            ],
            "stateMutability": "view",
            "type": "function"
        },
        {
            "inputs": [
                {
                    "internalType": "address",
                    "name": "to",
                    "type": "address"
                },
                {
                    "internalType": "enum Cryptures.CrypturesType",
                    "name": "cryptureType",
                    "type": "uint8"
                }
            ],
            "name": "mint",
            "outputs": [],
            "stateMutability": "nonpayable",
            "type": "function"
        },
        {
            "inputs": [],
            "name": "name",
            "outputs": [
                {
                    "internalType": "string",
                    "name": "",
                    "type": "string"
                }
            ],
            "stateMutability": "view",
            "type": "function"
        },
        {
            "inputs": [],
            "name": "owner",
            "outputs": [
                {
                    "internalType": "address",
                    "name": "",
                    "type": "address"
                }
            ],
            "stateMutability": "view",
            "type": "function"
        },
        {
            "inputs": [
                {
                    "internalType": "uint256",
                    "name": "tokenId",
                    "type": "uint256"
                }
            ],
            "name": "ownerOf",
            "outputs": [
                {
                    "internalType": "address",
                    "name": "",
                    "type": "address"
                }
            ],
            "stateMutability": "view",
            "type": "function"
        },
        {
            "inputs": [
                {
                    "internalType": "address",
                    "name": "from",
                    "type": "address"
                },
                {
                    "internalType": "address",
                    "name": "to",
                    "type": "address"
                },
                {
                    "internalType": "uint256",
                    "name": "tokenId",
                    "type": "uint256"
                }
            ],
            "name": "safeTransferFrom",
            "outputs": [],
            "stateMutability": "nonpayable",
            "type": "function"
        },
        {
            "inputs": [
                {
                    "internalType": "address",
                    "name": "from",
                    "type": "address"
                },
                {
                    "internalType": "address",
                    "name": "to",
                    "type": "address"
                },
                {
                    "internalType": "uint256",
                    "name": "tokenId",
                    "type": "uint256"
                },
                {
                    "internalType": "bytes",
                    "name": "_data",
                    "type": "bytes"
                }
            ],
            "name": "safeTransferFrom",
            "outputs": [],
            "stateMutability": "nonpayable",
            "type": "function"
        },
        {
            "inputs": [
                {
                    "internalType": "address",
                    "name": "operator",
                    "type": "address"
                },
                {
                    "internalType": "bool",
                    "name": "approved",
                    "type": "bool"
                }
            ],
            "name": "setApprovalForAll",
            "outputs": [],
            "stateMutability": "nonpayable",
            "type": "function"
        },
        {
            "inputs": [
                {
                    "internalType": "bytes4",
                    "name": "interfaceId",
                    "type": "bytes4"
                }
            ],
            "name": "supportsInterface",
            "outputs": [
                {
                    "internalType": "bool",
                    "name": "",
                    "type": "bool"
                }
            ],
            "stateMutability": "view",
            "type": "function"
        },
        {
            "inputs": [],
            "name": "symbol",
            "outputs": [
                {
                    "internalType": "string",
                    "name": "",
                    "type": "string"
                }
            ],
            "stateMutability": "view",
            "type": "function"
        },
        {
            "inputs": [
                {
                    "internalType": "uint256",
                    "name": "index",
                    "type": "uint256"
                }
            ],
            "name": "tokenByIndex",
            "outputs": [
                {
                    "internalType": "uint256",
                    "name": "",
                    "type": "uint256"
                }
            ],
            "stateMutability": "view",
            "type": "function"
        },
        {
            "inputs": [
                {
                    "internalType": "address",
                    "name": "owner",
                    "type": "address"
                },
                {
                    "internalType": "uint256",
                    "name": "index",
                    "type": "uint256"
                }
            ],
            "name": "tokenOfOwnerByIndex",
            "outputs": [
                {
                    "internalType": "uint256",
                    "name": "",
                    "type": "uint256"
                }
            ],
            "stateMutability": "view",
            "type": "function"
        },
        {
            "inputs": [
                {
                    "internalType": "uint256",
                    "name": "tokenId",
                    "type": "uint256"
                }
            ],
            "name": "tokenURI",
            "outputs": [
                {
                    "internalType": "string",
                    "name": "",
                    "type": "string"
                }
            ],
            "stateMutability": "view",
            "type": "function"
        },
        {
            "inputs": [],
            "name": "totalSupply",
            "outputs": [
                {
                    "internalType": "uint256",
                    "name": "",
                    "type": "uint256"
                }
            ],
            "stateMutability": "view",
            "type": "function"
        },
        {
            "inputs": [
                {
                    "internalType": "address",
                    "name": "from",
                    "type": "address"
                },
                {
                    "internalType": "address",
                    "name": "to",
                    "type": "address"
                },
                {
                    "internalType": "uint256",
                    "name": "tokenId",
                    "type": "uint256"
                }
            ],
            "name": "transferFrom",
            "outputs": [],
            "stateMutability": "nonpayable",
            "type": "function"
        },
        {
            "inputs": [
                {
                    "internalType": "uint256",
                    "name": "id",
                    "type": "uint256"
                }
            ],
            "name": "washCreatureFromId",
            "outputs": [
                {
                    "internalType": "uint256",
                    "name": "",
                    "type": "uint256"
                }
            ],
            "stateMutability": "nonpayable",
            "type": "function"
        }
    ],
    "bytecode": "60806040523480156200001157600080fd5b50604051620048e4380380620048e4833981016040819052620000349162000ccb565b6040805180820182526008815267437279707475726560c01b60208083019182528351808501909452600484526310d4941560e21b908401528151919291620000809160009162000b3f565b5080516200009690600190602084019062000b3f565b50508151620000ae9150600b90602084019062000b3f565b50600c80546001600160a01b031916331790556040805160e0810182526002815281518083018352602d80825260c860208381019190915280840192909252835180850185526031808252605c828501819052858701929092528551808701875290815280840191909152606084015283518085018552604180825260bf8285018190526080860192909252855180870187529081528084019190915260a08401528351808501909452835260558382015260c082019290925260008052600d90915280517f81955a0a11e65eac625c29e8882660bae4e165a75d72780094acae8ece9a29ee8054909190829060ff19166001836003811115620001c257634e487b7160e01b600052602160045260246000fd5b021790555060208281015180516001808501919091559082015160028401556040808501518051600386015583015160048501556060850151805160058601558301516006850155608085015180516007860155830151600885015560a085015180516009860155830151600a85015560c0909401518051600b85015590910151600c90920191909155815160e08101909252819081526040805180820182526027815260bc6020828101919091528084019190915281518083018352603481526062818301528284015281518083018352602b8152605181830152606084015281518083018352603c815260708183015260808401528151808301835260328152605e8183015260a084015281518083019092526041825260798282015260c09092015260016000819052600d90915281517ffd54ff1ed53f34a900b24c5ba64f85761163b5d82d98a47b9bd80e45466993c580549092839160ff1916908360038111156200034257634e487b7160e01b600052602160045260246000fd5b02179055506020828101518051600184015581015160028301556040808401518051600385015582015160048401556060840151805160058501558201516006840155608084015180516007850155820151600884015560a084015180516009850155820151600a84015560c0909301518051600b8401550151600c90910155805160e081019091528060008152604080518082018252602c815260c6602082810191909152808401919091528151808301835260308152605a8183015282840152815180830183526041815260798183015260608401528151808301835260328152605e8183015260808401528151808301835282815260778183015260a08401528151808301909252602b825260518282015260c0909201526002600052600d905280517f10a81eed9d63d16face5e76357905348e6253d3394086026bb2bf2145d7cc2498054909190829060ff19166001836003811115620004b757634e487b7160e01b600052602160045260246000fd5b02179055506020828101518051600184810191909155908201516002808501919091556040808601518051600387015584015160048601556060860151805160058701558401516006860155608086015180516007870155840151600886015560a086015180516009870155840151600a86015560c0909501518051600b860155830151600c909401939093558351808301909452600080855292909252600f905262000586917fa74ba3945261e09fde15ba3db55005b205e61eeb4ad811ac0faa2b315bffeead9162000bce565b5060408051602080820190925260018082526000819052600f909252620005d0917f169f97de0d9a84d840042b17d3c6b9638b3d6fd9024c9eb0c7a306a17b49f88f919062000bce565b506040805160208082019092526002815260008052600f90915262000619907ff4803e074bd026baaf6ed2e288c9515f68c72fb7216eebdd7cae1718a53ec37590600162000bce565b506040805161010081018252600660c08201818152655461636b6c6560d01b60e08401908152908352600060208401819052938301939093526028606083015260646080830152602360a083015290916010916200067991839162000b3f565b50602082015160018083018054909160ff1990911690836003811115620006b057634e487b7160e01b600052602160045260246000fd5b021790555060408201518160010160016101000a81548160ff02191690836001811115620006ee57634e487b7160e01b600052602160045260246000fd5b0217905550606082015160028201556080820151600382015560a090910151600490910155604080516101008101909152600960c0820190815268056696e6520576869760bc1b60e08301528152602081016001815260200160008152602d6020820152606460408201526019606090910152601060016005020160008201518160000190805190602001906200078792919062000b3f565b50602082015160018083018054909160ff1990911690836003811115620007be57634e487b7160e01b600052602160045260246000fd5b021790555060408201518160010160016101000a81548160ff02191690836001811115620007fc57634e487b7160e01b600052602160045260246000fd5b021790555060608201516002808301919091556080830151600383015560a090920151600490910155604080516101008101909152600560c082019081526422b6b132b960d91b60e0830152815290602082019081526020016001815260286020820152606460408201526019606090910152601060026005020160008201518160000190805190602001906200089592919062000b3f565b50602082015160018083018054909160ff1990911690836003811115620008cc57634e487b7160e01b600052602160045260246000fd5b021790555060408201518160010160016101000a81548160ff021916908360018111156200090a57634e487b7160e01b600052602160045260246000fd5b021790555060608201516002820155608082015160038083019190915560a090920151600490910155604080516101008101909152600960c08201908152682bb0ba32b91023bab760b91b60e083015281529060208201908152602001600181526028602082015260646040820152601960609091015260106003600502016000820151816000019080519060200190620009a792919062000b3f565b50602082015160018083018054909160ff1990911690836003811115620009de57634e487b7160e01b600052602160045260246000fd5b021790555060408201518160010160016101000a81548160ff0219169083600181111562000a1c57634e487b7160e01b600052602160045260246000fd5b021790555060608201516002828101919091556080830151600383015560a0909201516004909101556040805180820190915260008082526001602080840191909152908390526024905262000a95917f47bb5529a97e2b401b32950f6360fbc9e3f4e70b887dc0f9b9ad1f7402ca11da919062000c11565b50604080518082019091526000808252600260208084018290526001909252602490915262000ae6917fbbbb3b1da0cb0951f34c5e9db4606f934b7367b5284f29163e9e6fe67e1e97d69162000c11565b5060408051808201909152600080825260036020808401919091529080526024905262000b37907fb7634ec2165a7280a285aac3ec10cf370eca86d8aa9d3243c90b2151434091ad90600262000c11565b505062000df4565b82805462000b4d9062000da1565b90600052602060002090601f01602090048101928262000b71576000855562000bbc565b82601f1062000b8c57805160ff191683800117855562000bbc565b8280016001018555821562000bbc579182015b8281111562000bbc57825182559160200191906001019062000b9f565b5062000bca92915062000cb4565b5090565b82805482825590600052602060002090810192821562000bbc579160200282015b8281111562000bbc578251829060ff1690559160200191906001019062000bef565b82805482825590600052602060002090601f0160209004810192821562000bbc5791602002820160005b8382111562000c7b57835183826101000a81548160ff021916908360ff160217905550926020019260010160208160000104928301926001030262000c3b565b801562000caa5782816101000a81549060ff021916905560010160208160000104928301926001030262000c7b565b505062000bca9291505b5b8082111562000bca576000815560010162000cb5565b6000602080838503121562000cde578182fd5b82516001600160401b038082111562000cf5578384fd5b818501915085601f83011262000d09578384fd5b81518181111562000d1e5762000d1e62000dde565b604051601f8201601f19908116603f0116810190838211818310171562000d495762000d4962000dde565b81604052828152888684870101111562000d61578687fd5b8693505b8284101562000d84578484018601518185018701529285019262000d65565b8284111562000d9557868684830101525b98975050505050505050565b600181811c9082168062000db657607f821691505b6020821081141562000dd857634e487b7160e01b600052602260045260246000fd5b50919050565b634e487b7160e01b600052604160045260246000fd5b613ae08062000e046000396000f3fe608060405234801561001057600080fd5b50600436106101a95760003560e01c806370a08231116100f9578063b51f8fd211610097578063d36c44b511610071578063d36c44b5146103cf578063d663a9cc146103ef578063e6755ff91461040f578063e985e9c51461043757600080fd5b8063b51f8fd214610381578063b88d4fde146103a9578063c87b56dd146103bc57600080fd5b80638da5cb5b116100d35780638da5cb5b1461033557806395d89b4114610346578063a22cb4651461034e578063aaad92681461036157600080fd5b806370a08231146102e257806375b42794146102f55780637fecdd991461031557600080fd5b806323d423201161016657806342966c681161014057806342966c68146102965780634f6ccce7146102a95780636352211e146102bc578063691562a0146102cf57600080fd5b806323d42320146102505780632f745c591461027057806342842e0e1461028357600080fd5b806301ffc9a7146101ae57806306fdde03146101d6578063081812fc146101eb578063095ea7b31461021657806318160ddd1461022b57806323b872dd1461023d575b600080fd5b6101c16101bc3660046131d7565b610473565b60405190151581526020015b60405180910390f35b6101de610484565b6040516101cd919061351a565b6101fe6101f93660046132c0565b610516565b6040516001600160a01b0390911681526020016101cd565b6102296102243660046131ae565b6105b0565b005b6008545b6040519081526020016101cd565b61022961024b366004613058565b6106c6565b61026361025e3660046132d8565b6106f8565b6040516101cd919061368a565b61022f61027e3660046131ae565b610efc565b610229610291366004613058565b610f92565b6102296102a43660046132c0565b610fad565b61022f6102b73660046132c0565b611027565b6101fe6102ca3660046132c0565b6110c8565b6102296102dd366004613185565b61113f565b61022f6102f036600461300c565b611742565b6103086103033660046132c0565b6117c9565b6040516101cd91906135e3565b6103286103233660046132c0565b6118eb565b6040516101cd919061376e565b600c546001600160a01b03166101fe565b6101de611a0f565b61022961035c36600461314b565b611a1e565b61037461036f3660046132c0565b611ae3565b6040516101cd919061375b565b61022f61038f3660046132c0565b6000908152600e6020526040902060050180544290915590565b6102296103b7366004613093565b611d03565b6101de6103ca3660046132c0565b611d35565b6103e26103dd36600461320f565b611e10565b6040516101cd9190613814565b6104026103fd3660046132c0565b61207d565b6040516101cd91906135d0565b61022f61041d3660046132c0565b6000908152600e6020526040902060060180544290915590565b6101c1610445366004613026565b6001600160a01b03918216600090815260056020908152604080832093909416825291909152205460ff1690565b600061047e82612241565b92915050565b606060008054610493906139c2565b80601f01602080910402602001604051908101604052809291908181526020018280546104bf906139c2565b801561050c5780601f106104e15761010080835404028352916020019161050c565b820191906000526020600020905b8154815290600101906020018083116104ef57829003601f168201915b5050505050905090565b6000818152600260205260408120546001600160a01b03166105945760405162461bcd60e51b815260206004820152602c60248201527f4552433732313a20617070726f76656420717565727920666f72206e6f6e657860448201526b34b9ba32b73a103a37b5b2b760a11b60648201526084015b60405180910390fd5b506000908152600460205260409020546001600160a01b031690565b60006105bb826110c8565b9050806001600160a01b0316836001600160a01b031614156106295760405162461bcd60e51b815260206004820152602160248201527f4552433732313a20617070726f76616c20746f2063757272656e74206f776e656044820152603960f91b606482015260840161058b565b336001600160a01b038216148061064557506106458133610445565b6106b75760405162461bcd60e51b815260206004820152603860248201527f4552433732313a20617070726f76652063616c6c6572206973206e6f74206f7760448201527f6e6572206e6f7220617070726f76656420666f7220616c6c0000000000000000606482015260840161058b565b6106c18383612266565b505050565b6106d1335b826122d4565b6106ed5760405162461bcd60e51b815260040161058b9061357f565b6106c18383836123cb565b610700612cd3565b600061070b84611ae3565b9050600061071884611ae3565b905060008161016001518361016001511190506000423360405160200161075b92919091825260601b6bffffffffffffffffffffffff1916602082015260340190565b60405160208183030381529060405280519060200120905061077b612d15565b60005b6032811015610ed15784610160015186610160015114156107c1576107a4600284613a18565b156107b05760006107b3565b60015b93506107be83612576565b92505b8315610b73576101c0860151516000906107db9085613a18565b90506107e684612576565b93506000603281896101c00151848151811061081257634e487b7160e01b600052603260045260246000fd5b602002602001015160400151600181111561083d57634e487b7160e01b600052602160045260246000fd5b1461085d57876101a001518961018001516108589190613901565b610873565b8761014001518961012001516108739190613901565b896101c00151848151811061089857634e487b7160e01b600052603260045260246000fd5b6020026020010151606001516108ae9190613937565b60058a6020015160026108c19190613956565b6108cb9190613915565b6108d69060026138dc565b60ff166108e39190613937565b6108ed9190613901565b6108f89060026138c4565b905080876101000181815161090d919061397f565b90525061010087015161095b57604051806080016040528061092e8d6110c8565b6001600160a01b03168152602001898152602001888152602001858152509850505050505050505061047e565b6101c08701515160009061096f9087613a18565b905061097a86612576565b955060006032818a6101c0015184815181106109a657634e487b7160e01b600052603260045260246000fd5b60200260200101516040015160018111156109d157634e487b7160e01b600052602160045260246000fd5b146109f1578a6101a001518a61018001516109ec9190613901565b610a07565b8a61014001518a6101200151610a079190613901565b8a6101c001518481518110610a2c57634e487b7160e01b600052603260045260246000fd5b602002602001015160600151610a429190613937565b60058b602001516002610a559190613956565b610a5f9190613915565b610a6a9060026138dc565b60ff16610a779190613937565b610a819190613901565b610a8c9060026138c4565b9050808a61010001818151610aa1919061397f565b9052506040805160a081018252606081018681526080820185905281528151808301835285815260208181018590528083019190915282518084018452610100808f015182528d01519181019190915291810191909152868660328110610b1857634e487b7160e01b600052603260045260246000fd5b60200201526101008a0151610b6a576040518060800160405280610b3b8e6110c8565b6001600160a01b031681526020018b81526020018a8152602001878152509a505050505050505050505061047e565b50505050610ebf565b6101c086015151600090610b879085613a18565b9050610b9284612576565b93506000603281886101c001518481518110610bbe57634e487b7160e01b600052603260045260246000fd5b6020026020010151604001516001811115610be957634e487b7160e01b600052602160045260246000fd5b14610c0957886101a00151886101800151610c049190613901565b610c1f565b886101400151886101200151610c1f9190613901565b886101c001518481518110610c4457634e487b7160e01b600052603260045260246000fd5b602002602001015160600151610c5a9190613937565b600589602001516002610c6d9190613956565b610c779190613915565b610c829060026138dc565b60ff16610c8f9190613937565b610c999190613901565b610ca49060026138c4565b9050808861010001818151610cb9919061397f565b905250610100880151610cda57604051806080016040528061092e8c6110c8565b6101c088015151600090610cee9087613a18565b9050610cf986612576565b955060006032818b6101c001518481518110610d2557634e487b7160e01b600052603260045260246000fd5b6020026020010151604001516001811115610d5057634e487b7160e01b600052602160045260246000fd5b14610d7057896101a001518b6101800151610d6b9190613901565b610d86565b8961014001518b6101200151610d869190613901565b8b6101c001518481518110610dab57634e487b7160e01b600052603260045260246000fd5b602002602001015160600151610dc19190613937565b60058c602001516002610dd49190613956565b610dde9190613915565b610de99060026138dc565b60ff16610df69190613937565b610e009190613901565b610e0b9060026138c4565b9050808961010001818151610e20919061397f565b9052506040805160a081018252606081018681526080820185905281528151808301835285815260208181018590528083019190915282518084018452610100808f015182528d01519181019190915291810191909152868660328110610e9757634e487b7160e01b600052603260045260246000fd5b6020020152610100890151610eba576040518060800160405280610b3b8f6110c8565b505050505b80610ec9816139fd565b91505061077e565b5060408051608081018252600081526020810196909652850193909352505060608201529392505050565b6000610f0783611742565b8210610f695760405162461bcd60e51b815260206004820152602b60248201527f455243373231456e756d657261626c653a206f776e657220696e646578206f7560448201526a74206f6620626f756e647360a81b606482015260840161058b565b506001600160a01b03919091166000908152600660209081526040808320938352929052205490565b6106c183838360405180602001604052806000815250611d03565b610fb6336106cb565b61101b5760405162461bcd60e51b815260206004820152603060248201527f4552433732314275726e61626c653a2063616c6c6572206973206e6f74206f7760448201526f1b995c881b9bdc88185c1c1c9bdd995960821b606482015260840161058b565b611024816125a8565b50565b600061103260085490565b82106110955760405162461bcd60e51b815260206004820152602c60248201527f455243373231456e756d657261626c653a20676c6f62616c20696e646578206f60448201526b7574206f6620626f756e647360a01b606482015260840161058b565b600882815481106110b657634e487b7160e01b600052603260045260246000fd5b90600052602060002001549050919050565b6000818152600260205260408120546001600160a01b03168061047e5760405162461bcd60e51b815260206004820152602960248201527f4552433732313a206f776e657220717565727920666f72206e6f6e657869737460448201526832b73a103a37b5b2b760b91b606482015260840161058b565b600c546001600160a01b031633146111995760405162461bcd60e51b815260206004820181905260248201527f4f776e61626c653a2063616c6c6572206973206e6f7420746865206f776e6572604482015260640161058b565b60006111a4600a5490565b9050600042336040516020016111d692919091825260601b6bffffffffffffffffffffffff1916602082015260340190565b6040516020818303038152906040528051906020012090506111f8848361264f565b600383600381111561121a57634e487b7160e01b600052602160045260246000fd5b1461148c576000600f600085600381111561124557634e487b7160e01b600052602160045260246000fd5b600381111561126457634e487b7160e01b600052602160045260246000fd5b815260208101919091526040016000205461127f9083613a18565b905061128a82612576565b91506000600f60008660038111156112b257634e487b7160e01b600052602160045260246000fd5b60038111156112d157634e487b7160e01b600052602160045260246000fd5b815260200190815260200160002082815481106112fe57634e487b7160e01b600052603260045260246000fd5b90600052602060002001549050604051806101000160405280828152602001600160ff1681526020016000815260200160008152602001600081526020014281526020014281526020016024600088600381111561136c57634e487b7160e01b600052602160045260246000fd5b600381111561138b57634e487b7160e01b600052602160045260246000fd5b815260200190815260200160002080548060200260200160405190810160405280929190818152602001828054801561140157602002820191906000526020600020906000905b825461010083900a900460ff168152602060019283018181049485019490930390920291018084116113d25790505b5050509190925250506000858152600e6020908152604091829020835181558382015160018201805460ff191660ff909216919091179055918301516002830155606083015160038301556080830151600483015560a0830151600583015560c0830151600683015560e083015180516114819260078501920190612d43565b50905050505061172e565b6000611499600483613a18565b60038111156114b857634e487b7160e01b600052602160045260246000fd5b90506114c382612576565b91506000600f60008360038111156114eb57634e487b7160e01b600052602160045260246000fd5b600381111561150a57634e487b7160e01b600052602160045260246000fd5b81526020810191909152604001600020546115259084613a18565b905061153083612576565b92506000600f600084600381111561155857634e487b7160e01b600052602160045260246000fd5b600381111561157757634e487b7160e01b600052602160045260246000fd5b815260200190815260200160002082815481106115a457634e487b7160e01b600052603260045260246000fd5b90600052602060002001549050604051806101000160405280828152602001600160ff1681526020016000815260200160008152602001600081526020014281526020014281526020016024600086600381111561161257634e487b7160e01b600052602160045260246000fd5b600381111561163157634e487b7160e01b600052602160045260246000fd5b81526020019081526020016000208054806020026020016040519081016040528092919081815260200182805480156116a757602002820191906000526020600020906000905b825461010083900a900460ff168152602060019283018181049485019490930390920291018084116116785790505b5050509190925250506000868152600e6020908152604091829020835181558382015160018201805460ff191660ff909216919091179055918301516002830155606083015160038301556080830151600483015560a0830151600583015560c0830151600683015560e083015180516117279260078501920190612d43565b5050505050505b61173c600a80546001019055565b50505050565b60006001600160a01b0382166117ad5760405162461bcd60e51b815260206004820152602a60248201527f4552433732313a2062616c616e636520717565727920666f7220746865207a65604482015269726f206164647265737360b01b606482015260840161058b565b506001600160a01b031660009081526003602052604090205490565b6117d1612de9565b6000828152600d602052604090819020815160e081019092528054829060ff16600381111561181057634e487b7160e01b600052602160045260246000fd5b600381111561182f57634e487b7160e01b600052602160045260246000fd5b81526040805180820182526001840154815260028401546020828101919091528084019190915281518083018352600385015481526004850154818301528284015281518083018352600585015481526006850154818301526060840152815180830183526007850154815260088501548183015260808401528151808301835260098501548152600a8501548183015260a08401528151808301909252600b8401548252600c909301549281019290925260c0015292915050565b61193660405180610100016040528060008152602001600060ff1681526020016000815260200160008152602001600081526020016000815260200160008152602001606081525090565b6000828152600e602090815260409182902082516101008101845281548152600182015460ff16818401526002820154818501526003820154606082015260048201546080820152600582015460a0820152600682015460c08201526007820180548551818602810186019096528086529194929360e086019392908301828280156119ff57602002820191906000526020600020906000905b825461010083900a900460ff168152602060019283018181049485019490930390920291018084116119d05790505b5050505050815250509050919050565b606060018054610493906139c2565b6001600160a01b038216331415611a775760405162461bcd60e51b815260206004820152601960248201527f4552433732313a20617070726f766520746f2063616c6c657200000000000000604482015260640161058b565b3360008181526005602090815260408083206001600160a01b03871680855290835292819020805460ff191686151590811790915590519081529192917f17307eab39ab6107e8899845ad3d59bd9653f200f220920489ca2b5937696c31910160405180910390a35050565b611aeb612ec3565b6000611af6836118eb565b905060008160e001515167ffffffffffffffff811115611b2657634e487b7160e01b600052604160045260246000fd5b604051908082528060200260200182016040528015611b9157816020015b611b7e6040805160c08101909152606081526020810160008152602001600081526020016000815260200160008152602001600081525090565b815260200190600190039081611b445790505b50905060005b8260e0015151811015611c1957611bdb8360e001518281518110611bcb57634e487b7160e01b600052603260045260246000fd5b602002602001015160ff1661207d565b828281518110611bfb57634e487b7160e01b600052603260045260246000fd5b60200260200101819052508080611c11906139fd565b915050611b97565b506000611c39611c2c84600001516117c9565b846020015160ff16611e10565b9050604051806101e0016040528084600001518152602001846020015160ff1681526020018460400151815260200184606001518152602001846080015181526020018460a0015181526020018460c00151815260200182600001516003811115611cb457634e487b7160e01b600052602160045260246000fd5b8152602001826020015181526020018260400151815260200182606001518152602001826080015181526020018260a0015181526020018260c001518152602001838152509350505050919050565b611d0d33836122d4565b611d295760405162461bcd60e51b815260040161058b9061357f565b61173c8484848461279d565b6000818152600260205260409020546060906001600160a01b0316611db45760405162461bcd60e51b815260206004820152602f60248201527f4552433732314d657461646174613a2055524920717565727920666f72206e6f60448201526e3732bc34b9ba32b73a103a37b5b2b760891b606482015260840161058b565b6000611dbe6127d0565b90506000815111611dde5760405180602001604052806000815250611e09565b80611de8846127df565b604051602001611df99291906134b8565b6040516020818303038152906040525b9392505050565b611e516040805160e0810190915280600081526020016000815260200160008152602001600081526020016000815260200160008152602001600081525090565b611e926040805160e0810190915280600081526020016000815260200160008152602001600081526020016000815260200160008152602001600081525090565b835181906003811115611eb557634e487b7160e01b600052602160045260246000fd5b90816003811115611ed657634e487b7160e01b600052602160045260246000fd5b9052506020808501510151611eed61010085613901565b6020808701518051910151611f02919061397f565b611f0c9190613937565b611f1691906138c4565b60208083019190915260408501510151611f3261010085613901565b60408601518051602090910151611f49919061397f565b611f539190613937565b611f5d91906138c4565b6040820152606084015160200151611f7761010085613901565b60608601518051602090910151611f8e919061397f565b611f989190613937565b611fa291906138c4565b6060820152608084015160200151611fbc61010085613901565b60808601518051602090910151611fd3919061397f565b611fdd9190613937565b611fe791906138c4565b608082015260a08401516020015161200161010085613901565b60a08601518051602090910151612018919061397f565b6120229190613937565b61202c91906138c4565b60a082015260c08401516020015161204661010085613901565b60c0860151805160209091015161205d919061397f565b6120679190613937565b61207191906138c4565b60c08201529392505050565b6120b76040805160c08101909152606081526020810160008152602001600081526020016000815260200160008152602001600081525090565b601082600481106120d857634e487b7160e01b600052603260045260246000fd5b600502016040518060c00160405290816000820180546120f7906139c2565b80601f0160208091040260200160405190810160405280929190818152602001828054612123906139c2565b80156121705780601f1061214557610100808354040283529160200191612170565b820191906000526020600020905b81548152906001019060200180831161215357829003601f168201915b5050509183525050600182015460209091019060ff1660038111156121a557634e487b7160e01b600052602160045260246000fd5b60038111156121c457634e487b7160e01b600052602160045260246000fd5b81526020016001820160019054906101000a900460ff1660018111156121fa57634e487b7160e01b600052602160045260246000fd5b600181111561221957634e487b7160e01b600052602160045260246000fd5b8152600282015460208201526003820154604082015260049091015460609091015292915050565b60006001600160e01b0319821663780e9d6360e01b148061047e575061047e826128f9565b600081815260046020526040902080546001600160a01b0319166001600160a01b038416908117909155819061229b826110c8565b6001600160a01b03167f8c5be1e5ebec7d5bd14f71427d1e84f3dd0314c0f7b2291e5b200ac8c7c3b92560405160405180910390a45050565b6000818152600260205260408120546001600160a01b031661234d5760405162461bcd60e51b815260206004820152602c60248201527f4552433732313a206f70657261746f7220717565727920666f72206e6f6e657860448201526b34b9ba32b73a103a37b5b2b760a11b606482015260840161058b565b6000612358836110c8565b9050806001600160a01b0316846001600160a01b031614806123935750836001600160a01b031661238884610516565b6001600160a01b0316145b806123c357506001600160a01b0380821660009081526005602090815260408083209388168352929052205460ff165b949350505050565b826001600160a01b03166123de826110c8565b6001600160a01b0316146124465760405162461bcd60e51b815260206004820152602960248201527f4552433732313a207472616e73666572206f6620746f6b656e2074686174206960448201526839903737ba1037bbb760b91b606482015260840161058b565b6001600160a01b0382166124a85760405162461bcd60e51b8152602060048201526024808201527f4552433732313a207472616e7366657220746f20746865207a65726f206164646044820152637265737360e01b606482015260840161058b565b6124b3838383612949565b6124be600082612266565b6001600160a01b03831660009081526003602052604081208054600192906124e790849061397f565b90915550506001600160a01b03821660009081526003602052604081208054600192906125159084906138c4565b909155505060008181526002602052604080822080546001600160a01b0319166001600160a01b0386811691821790925591518493918716917fddf252ad1be2c89b69c2b068fc378daa952ba7f163c4a11628f55a4df523b3ef91a4505050565b60008160405160200161258b91815260200190565b604051602081830303815290604052805190602001209050919050565b60006125b3826110c8565b90506125c181600084612949565b6125cc600083612266565b6001600160a01b03811660009081526003602052604081208054600192906125f590849061397f565b909155505060008281526002602052604080822080546001600160a01b0319169055518391906001600160a01b038416907fddf252ad1be2c89b69c2b068fc378daa952ba7f163c4a11628f55a4df523b3ef908390a45050565b6001600160a01b0382166126a55760405162461bcd60e51b815260206004820181905260248201527f4552433732313a206d696e7420746f20746865207a65726f2061646472657373604482015260640161058b565b6000818152600260205260409020546001600160a01b03161561270a5760405162461bcd60e51b815260206004820152601c60248201527f4552433732313a20746f6b656e20616c7265616479206d696e74656400000000604482015260640161058b565b61271660008383612949565b6001600160a01b038216600090815260036020526040812080546001929061273f9084906138c4565b909155505060008181526002602052604080822080546001600160a01b0319166001600160a01b03861690811790915590518392907fddf252ad1be2c89b69c2b068fc378daa952ba7f163c4a11628f55a4df523b3ef908290a45050565b6127a88484846123cb565b6127b484848484612954565b61173c5760405162461bcd60e51b815260040161058b9061352d565b6060600b8054610493906139c2565b6060816128035750506040805180820190915260018152600360fc1b602082015290565b8160005b811561282d5780612817816139fd565b91506128269050600a83613901565b9150612807565b60008167ffffffffffffffff81111561285657634e487b7160e01b600052604160045260246000fd5b6040519080825280601f01601f191660200182016040528015612880576020820181803683370190505b5090505b84156123c35761289560018361397f565b91506128a2600a86613a18565b6128ad9060306138c4565b60f81b8183815181106128d057634e487b7160e01b600052603260045260246000fd5b60200101906001600160f81b031916908160001a9053506128f2600a86613901565b9450612884565b60006001600160e01b031982166380ac58cd60e01b148061292a57506001600160e01b03198216635b5e139f60e01b145b8061047e57506301ffc9a760e01b6001600160e01b031983161461047e565b6106c1838383612a61565b60006001600160a01b0384163b15612a5657604051630a85bd0160e11b81526001600160a01b0385169063150b7a02906129989033908990889088906004016134e7565b602060405180830381600087803b1580156129b257600080fd5b505af19250505080156129e2575060408051601f3d908101601f191682019092526129df918101906131f3565b60015b612a3c573d808015612a10576040519150601f19603f3d011682016040523d82523d6000602084013e612a15565b606091505b508051612a345760405162461bcd60e51b815260040161058b9061352d565b805181602001fd5b6001600160e01b031916630a85bd0160e11b1490506123c3565b506001949350505050565b6001600160a01b038316612abc57612ab781600880546000838152600960205260408120829055600182018355919091527ff3f7a9fe364faab93b216da50a3214154f22a0a2b415b23a84c8169e8b636ee30155565b612adf565b816001600160a01b0316836001600160a01b031614612adf57612adf8382612b19565b6001600160a01b038216612af6576106c181612bb6565b826001600160a01b0316826001600160a01b0316146106c1576106c18282612c8f565b60006001612b2684611742565b612b30919061397f565b600083815260076020526040902054909150808214612b83576001600160a01b03841660009081526006602090815260408083208584528252808320548484528184208190558352600790915290208190555b5060009182526007602090815260408084208490556001600160a01b039094168352600681528383209183525290812055565b600854600090612bc89060019061397f565b60008381526009602052604081205460088054939450909284908110612bfe57634e487b7160e01b600052603260045260246000fd5b906000526020600020015490508060088381548110612c2d57634e487b7160e01b600052603260045260246000fd5b6000918252602080832090910192909255828152600990915260408082208490558582528120556008805480612c7357634e487b7160e01b600052603160045260246000fd5b6001900381819060005260206000200160009055905550505050565b6000612c9a83611742565b6001600160a01b039093166000908152600660209081526040808320868452825280832085905593825260079052919091209190915550565b604051806080016040528060006001600160a01b03168152602001612cf6612ec3565b8152602001612d03612ec3565b8152602001612d10612d15565b905290565b6040518061064001604052806032905b612d2d612f5b565b815260200190600190039081612d255790505090565b82805482825590600052602060002090601f01602090048101928215612dd95791602002820160005b83821115612daa57835183826101000a81548160ff021916908360ff1602179055509260200192600101602081600001049283019260010302612d6c565b8015612dd75782816101000a81549060ff0219169055600101602081600001049283019260010302612daa565b505b50612de5929150612f7e565b5090565b6040805160e081019091528060008152602001612e19604051806040016040528060008152602001600081525090565b8152602001612e3b604051806040016040528060008152602001600081525090565b8152602001612e5d604051806040016040528060008152602001600081525090565b8152602001612e7f604051806040016040528060008152602001600081525090565b8152602001612ea1604051806040016040528060008152602001600081525090565b8152602001612d10604051806040016040528060008152602001600081525090565b604051806101e0016040528060008152602001600060ff168152602001600081526020016000815260200160008152602001600081526020016000815260200160006003811115612f2457634e487b7160e01b600052602160045260246000fd5b8152602001600081526020016000815260200160008152602001600081526020016000815260200160008152602001606081525090565b6040805160a0810190915260006060820181815260808301919091528190612e7f565b5b80821115612de55760008155600101612f7f565b80356001600160a01b0381168114612faa57600080fd5b919050565b803560048110612faa57600080fd5b600060408284031215612fcf578081fd5b6040516040810181811067ffffffffffffffff82111715612ff257612ff2613a6e565b604052823581526020928301359281019290925250919050565b60006020828403121561301d578081fd5b611e0982612f93565b60008060408385031215613038578081fd5b61304183612f93565b915061304f60208401612f93565b90509250929050565b60008060006060848603121561306c578081fd5b61307584612f93565b925061308360208501612f93565b9150604084013590509250925092565b600080600080608085870312156130a8578081fd5b6130b185612f93565b935060206130c0818701612f93565b935060408601359250606086013567ffffffffffffffff808211156130e3578384fd5b818801915088601f8301126130f6578384fd5b81358181111561310857613108613a6e565b61311a601f8201601f19168501613893565b9150808252898482850101111561312f578485fd5b8084840185840137810190920192909252939692955090935050565b6000806040838503121561315d578182fd5b61316683612f93565b91506020830135801515811461317a578182fd5b809150509250929050565b60008060408385031215613197578182fd5b6131a083612f93565b915061304f60208401612faf565b600080604083850312156131c0578182fd5b6131c983612f93565b946020939093013593505050565b6000602082840312156131e8578081fd5b8135611e0981613a94565b600060208284031215613204578081fd5b8151611e0981613a94565b6000808284036101c0811215613223578283fd5b6101a080821215613232578384fd5b61323a61386a565b915061324585612faf565b82526132548660208701612fbe565b60208301526132668660608701612fbe565b60408301526132788660a08701612fbe565b606083015261328a8660e08701612fbe565b608083015261329d866101208701612fbe565b60a08301526132b0866101608701612fbe565b60c0830152909593013593505050565b6000602082840312156132d1578081fd5b5035919050565b600080604083850312156132ea578182fd5b50508035926020909101359150565b600081518084526020808501808196508360051b81019150828601855b8581101561334057828403895261332e848351613386565b98850198935090840190600101613316565b5091979650505050505050565b60008151808452613365816020860160208601613996565b601f01601f19169290920160200192915050565b61338281613a84565b9052565b6000815160c0845261339b60c085018261334d565b905060208301516133ab81613a84565b60208501526040830151600281106133c5576133c5613a58565b6040850152606083810151908501526080808401519085015260a09283015192909301919091525090565b60006101e082518452602083015161340d602086018260ff169052565b5060408301516040850152606083015160608501526080830151608085015260a083015160a085015260c083015160c085015260e083015161345260e0860182613379565b50610100838101519085015261012080840151908501526101408084015190850152610160808401519085015261018080840151908501526101a080840151908501526101c0808401518186018390526134ae838701826132f9565b9695505050505050565b600083516134ca818460208801613996565b8351908301906134de818360208801613996565b01949350505050565b6001600160a01b03858116825284166020820152604081018390526080606082018190526000906134ae9083018461334d565b602081526000611e09602083018461334d565b60208082526032908201527f4552433732313a207472616e7366657220746f206e6f6e20455243373231526560408201527131b2b4bb32b91034b6b83632b6b2b73a32b960711b606082015260800190565b60208082526031908201527f4552433732313a207472616e736665722063616c6c6572206973206e6f74206f6040820152701ddb995c881b9bdc88185c1c1c9bdd9959607a1b606082015260800190565b602081526000611e096020830184613386565b81516101a08201906135f481613a84565b82526020838101518051828501529081015160408401525060408301518051606084015260208101516080840152506060830151805160a0840152602081015160c0840152506080830151805160e084015260208101516101008401525060a0830151805161012084015260208101516101408401525060c0830151805161016084015260208101516101808401525092915050565b6000602080835260018060a01b03845116818401528084015160406125e0818601526136ba6126008601836133f0565b915080860151601f198684030160608701526136d683826133f0565b92505060608601516080808701865b603281101561374d57835161370583825180518252602090810151910152565b8781015161371f8785018280518252602090810151910152565b508501516137398385018280518252602090810151910152565b509286019260c091909101906001016136e5565b509398975050505050505050565b602081526000611e0960208301846133f0565b6000602080835261012083018451828501528185015160ff80821660408701526040870151606087015260608701516080870152608087015160a087015260a087015160c087015260c087015160e087015260e087015191506101008081880152508282518085526101408801915085840194508693505b80841015613808578451831682529385019360019390930192908501906137e6565b50979650505050505050565b815160e082019061382481613a84565b808352506020830151602083015260408301516040830152606083015160608301526080830151608083015260a083015160a083015260c083015160c083015292915050565b60405160e0810167ffffffffffffffff8111828210171561388d5761388d613a6e565b60405290565b604051601f8201601f1916810167ffffffffffffffff811182821017156138bc576138bc613a6e565b604052919050565b600082198211156138d7576138d7613a2c565b500190565b600060ff821660ff84168060ff038211156138f9576138f9613a2c565b019392505050565b60008261391057613910613a42565b500490565b600060ff83168061392857613928613a42565b8060ff84160491505092915050565b600081600019048311821515161561395157613951613a2c565b500290565b600060ff821660ff84168160ff048111821515161561397757613977613a2c565b029392505050565b60008282101561399157613991613a2c565b500390565b60005b838110156139b1578181015183820152602001613999565b8381111561173c5750506000910152565b600181811c908216806139d657607f821691505b602082108114156139f757634e487b7160e01b600052602260045260246000fd5b50919050565b6000600019821415613a1157613a11613a2c565b5060010190565b600082613a2757613a27613a42565b500690565b634e487b7160e01b600052601160045260246000fd5b634e487b7160e01b600052601260045260246000fd5b634e487b7160e01b600052602160045260246000fd5b634e487b7160e01b600052604160045260246000fd5b6004811061102457611024613a58565b6001600160e01b03198116811461102457600080fdfea26469706673582212203ac43d11b2b12f819c9432c43df91dadb59d8d1fb5868746cc9d7b2177ee790e64736f6c63430008040033",
    "sourcePath": "c:/Users/hbnat/Desktop/cryptures/cryptures.sol",
    "compiler": {
        "name": "solc",
        "version": "0.8.4+commit.c7e474f2"
    },
    "functionHashes": {
        "approve(address,uint256)": "095ea7b3",
        "balanceOf(address)": "70a08231",
        "burn(uint256)": "42966c68",
        "feedCreatureFromId(uint256)": "b51f8fd2",
        "getApproved(uint256)": "081812fc",
        "getCryptureAttack(uint256)": "d663a9cc",
        "getCryptureBaseStats(uint256)": "75b42794",
        "getCryptureCompleteInfo(uint256)": "aaad9268",
        "getCryptureInfo(uint256)": "7fecdd99",
        "getStatByLevel((uint8,(uint256,uint256),(uint256,uint256),(uint256,uint256),(uint256,uint256),(uint256,uint256),(uint256,uint256)),uint256)": "d36c44b5",
        "getWinnerBattle(uint256,uint256)": "23d42320",
        "isApprovedForAll(address,address)": "e985e9c5",
        "mint(address,uint8)": "691562a0",
        "name()": "06fdde03",
        "owner()": "8da5cb5b",
        "ownerOf(uint256)": "6352211e",
        "safeTransferFrom(address,address,uint256)": "42842e0e",
        "safeTransferFrom(address,address,uint256,bytes)": "b88d4fde",
        "setApprovalForAll(address,bool)": "a22cb465",
        "supportsInterface(bytes4)": "01ffc9a7",
        "symbol()": "95d89b41",
        "tokenByIndex(uint256)": "4f6ccce7",
        "tokenOfOwnerByIndex(address,uint256)": "2f745c59",
        "tokenURI(uint256)": "c87b56dd",
        "totalSupply()": "18160ddd",
        "transferFrom(address,address,uint256)": "23b872dd",
        "washCreatureFromId(uint256)": "e6755ff9"
    },
    "gasEstimates": {
        "creation": {
            "codeDepositCost": "3014400",
            "executionCost": "infinite",
            "totalCost": "infinite"
        },
        "external": {
            "approve(address,uint256)": "infinite",
            "balanceOf(address)": "1335",
            "burn(uint256)": "infinite",
            "feedCreatureFromId(uint256)": "21200",
            "getApproved(uint256)": "2160",
            "getCryptureAttack(uint256)": "infinite",
            "getCryptureBaseStats(uint256)": "12489",
            "getCryptureCompleteInfo(uint256)": "infinite",
            "getCryptureInfo(uint256)": "infinite",
            "getStatByLevel((uint8,(uint256,uint256),(uint256,uint256),(uint256,uint256),(uint256,uint256),(uint256,uint256),(uint256,uint256)),uint256)": "infinite",
            "getWinnerBattle(uint256,uint256)": "infinite",
            "isApprovedForAll(address,address)": "infinite",
            "mint(address,uint8)": "infinite",
            "name()": "infinite",
            "owner()": "1076",
            "ownerOf(uint256)": "1345",
            "safeTransferFrom(address,address,uint256)": "infinite",
            "safeTransferFrom(address,address,uint256,bytes)": "infinite",
            "setApprovalForAll(address,bool)": "23317",
            "supportsInterface(bytes4)": "infinite",
            "symbol()": "infinite",
            "tokenByIndex(uint256)": "2882",
            "tokenOfOwnerByIndex(address,uint256)": "2398",
            "tokenURI(uint256)": "infinite",
            "totalSupply()": "1093",
            "transferFrom(address,address,uint256)": "infinite",
            "washCreatureFromId(uint256)": "21243"
        },
        "internal": {
            "_baseURI()": "infinite",
            "_beforeTokenTransfer(address,address,uint256)": "infinite",
            "_nextRandomValue(bytes32)": "infinite"
        }
    }
}