{
    "contractName": "CrypturesManager",
    "abi": [
        {
            "inputs": [],
            "stateMutability": "nonpayable",
            "type": "constructor"
        },
        {
            "inputs": [
                {
                    "internalType": "uint256",
                    "name": "ownId",
                    "type": "uint256"
                },
                {
                    "internalType": "uint256",
                    "name": "enemyId",
                    "type": "uint256"
                }
            ],
            "name": "battle",
            "outputs": [],
            "stateMutability": "nonpayable",
            "type": "function"
        },
        {
            "inputs": [
                {
                    "internalType": "enum Cryptures.CrypturesType",
                    "name": "cryptureType",
                    "type": "uint8"
                }
            ],
            "name": "buyCrypture",
            "outputs": [],
            "stateMutability": "payable",
            "type": "function"
        },
        {
            "inputs": [
                {
                    "internalType": "enum Cryptures.CrypturesType",
                    "name": "cryptureType",
                    "type": "uint8"
                }
            ],
            "name": "buyCryptureWithToken",
            "outputs": [],
            "stateMutability": "nonpayable",
            "type": "function"
        },
        {
            "inputs": [],
            "name": "cherishol",
            "outputs": [
                {
                    "internalType": "contract Cherishol",
                    "name": "",
                    "type": "address"
                }
            ],
            "stateMutability": "view",
            "type": "function"
        },
        {
            "inputs": [],
            "name": "cryptures",
            "outputs": [
                {
                    "internalType": "contract Cryptures",
                    "name": "",
                    "type": "address"
                }
            ],
            "stateMutability": "view",
            "type": "function"
        },
        {
            "inputs": [
                {
                    "internalType": "uint256",
                    "name": "id",
                    "type": "uint256"
                }
            ],
            "name": "feedCrypture",
            "outputs": [],
            "stateMutability": "nonpayable",
            "type": "function"
        },
        {
            "inputs": [
                {
                    "internalType": "uint256",
                    "name": "id",
                    "type": "uint256"
                }
            ],
            "name": "washCrypture",
            "outputs": [],
            "stateMutability": "nonpayable",
            "type": "function"
        }
    ],
    "bytecode": "608060405234801561001057600080fd5b5060405161001d906100dc565b604051809103906000f080158015610039573d6000803e3d6000fd5b50600080546001600160a01b0319166001600160a01b0392909216919091179055604051610066906100e9565b6020808252601f908201527f687474703a2f2f6c6f63616c686f73743a383030302f63727970747572652f006040820152606001604051809103906000f0801580156100b6573d6000803e3d6000fd5b50600180546001600160a01b0319166001600160a01b03929092169190911790556100f6565b610e03806106a283390190565b61220f806114a583390190565b61059d806101056000396000f3fe6080604052600436106100705760003560e01c8063b7be60631161004e578063b7be6063146100d6578063c72b344d14610112578063d62277cb14610125578063ff5ee5941461014557600080fd5b80632a0c52211461007557806366acf65614610096578063745d2d3e146100b6575b600080fd5b34801561008157600080fd5b5061009461009036600461049f565b5050565b005b3480156100a257600080fd5b506100946100b1366004610449565b610165565b3480156100c257600080fd5b506100946100d136600461046f565b610247565b3480156100e257600080fd5b506000546100f6906001600160a01b031681565b6040516001600160a01b03909116815260200160405180910390f35b610094610120366004610449565b610400565b34801561013157600080fd5b506001546100f6906001600160a01b031681565b34801561015157600080fd5b5061009461016036600461046f565b610417565b6000546001600160a01b03166379cc6790336040516001600160e01b031960e084901b1681526001600160a01b0390911660048201526801a055690d9db800006024820152604401600060405180830381600087803b1580156101c757600080fd5b505af11580156101db573d6000803e3d6000fd5b50506001546001600160a01b0316915063691562a09050335b836040518363ffffffff1660e01b81526004016102129291906104c0565b600060405180830381600087803b15801561022c57600080fd5b505af1158015610240573d6000803e3d6000fd5b5050505050565b60015460405163e6755ff960e01b8152600481018390526000916001600160a01b03169063e6755ff9906024015b602060405180830381600087803b15801561028f57600080fd5b505af11580156102a3573d6000803e3d6000fd5b505050506040513d601f19601f820116820180604052508101906102c79190610487565b9050620151806102d7824261053a565b111561035a576000546001600160a01b03166340c10f19336040516001600160e01b031960e084901b1681526001600160a01b039091166004820152670de0b6b3a76400006024820152604401600060405180830381600087803b15801561033e57600080fd5b505af1158015610352573d6000803e3d6000fd5b505050505050565b60006201518061036a834261053a565b61037491906104fb565b61038690670de0b6b3a764000061051b565b6000549091506001600160a01b03166340c10f19336040516001600160e01b031960e084901b1681526001600160a01b03909116600482015260248101849052604401600060405180830381600087803b1580156103e357600080fd5b505af11580156103f7573d6000803e3d6000fd5b50505050505050565b6001546001600160a01b031663691562a0336101f4565b600154604051635a8fc7e960e11b8152600481018390526000916001600160a01b03169063b51f8fd290602401610275565b60006020828403121561045a578081fd5b813560048110610468578182fd5b9392505050565b600060208284031215610480578081fd5b5035919050565b600060208284031215610498578081fd5b5051919050565b600080604083850312156104b1578081fd5b50508035926020909101359150565b6001600160a01b038316815260408101600483106104ee57634e487b7160e01b600052602160045260246000fd5b8260208301529392505050565b60008261051657634e487b7160e01b81526012600452602481fd5b500490565b600081600019048311821515161561053557610535610551565b500290565b60008282101561054c5761054c610551565b500390565b634e487b7160e01b600052601160045260246000fdfea2646970667358221220e7cece074ac489b00170c872336702d94c86f4b55a858df756785d10ca1c4ab664736f6c6343000804003360806040523480156200001157600080fd5b50604080518082018252600981526810da195c9a5cda1bdb60ba1b6020808301918252835180850190945260048452634348525360e01b9084015281519192916200005f91600391620000a7565b50805162000075906004906020840190620000a7565b50620000819150503390565b600580546001600160a01b0319166001600160a01b03929092169190911790556200018a565b828054620000b5906200014d565b90600052602060002090601f016020900481019282620000d9576000855562000124565b82601f10620000f457805160ff191683800117855562000124565b8280016001018555821562000124579182015b828111156200012457825182559160200191906001019062000107565b506200013292915062000136565b5090565b5b8082111562000132576000815560010162000137565b600181811c908216806200016257607f821691505b602082108114156200018457634e487b7160e01b600052602260045260246000fd5b50919050565b610c69806200019a6000396000f3fe608060405234801561001057600080fd5b50600436106100ea5760003560e01c806370a082311161008c57806395d89b411161006657806395d89b41146101e3578063a457c2d7146101eb578063a9059cbb146101fe578063dd62ed3e1461021157600080fd5b806370a082311461018c57806379cc6790146101b55780638da5cb5b146101c857600080fd5b806323b872dd116100c857806323b872dd14610142578063313ce56714610155578063395093511461016457806340c10f191461017757600080fd5b806306fdde03146100ef578063095ea7b31461010d57806318160ddd14610130575b600080fd5b6100f761024a565b6040516101049190610b60565b60405180910390f35b61012061011b366004610b37565b6102dc565b6040519015158152602001610104565b6002545b604051908152602001610104565b610120610150366004610afc565b6102f2565b60405160128152602001610104565b610120610172366004610b37565b6103a8565b61018a610185366004610b37565b6103df565b005b61013461019a366004610aa9565b6001600160a01b031660009081526020819052604090205490565b61018a6101c3366004610b37565b610447565b6005546040516001600160a01b039091168152602001610104565b6100f76104ab565b6101206101f9366004610b37565b6104ba565b61012061020c366004610b37565b610555565b61013461021f366004610aca565b6001600160a01b03918216600090815260016020908152604080832093909416825291909152205490565b60606003805461025990610be2565b80601f016020809104026020016040519081016040528092919081815260200182805461028590610be2565b80156102d25780601f106102a7576101008083540402835291602001916102d2565b820191906000526020600020905b8154815290600101906020018083116102b557829003601f168201915b5050505050905090565b60006102e9338484610562565b50600192915050565b60006102ff848484610687565b6001600160a01b0384166000908152600160209081526040808320338452909152902054828110156103895760405162461bcd60e51b815260206004820152602860248201527f45524332303a207472616e7366657220616d6f756e74206578636565647320616044820152676c6c6f77616e636560c01b60648201526084015b60405180910390fd5b61039d85336103988685610bcb565b610562565b506001949350505050565b3360008181526001602090815260408083206001600160a01b038716845290915281205490916102e9918590610398908690610bb3565b6005546001600160a01b031633146104395760405162461bcd60e51b815260206004820181905260248201527f4f776e61626c653a2063616c6c6572206973206e6f7420746865206f776e65726044820152606401610380565b610443828261085f565b5050565b6005546001600160a01b031633146104a15760405162461bcd60e51b815260206004820181905260248201527f4f776e61626c653a2063616c6c6572206973206e6f7420746865206f776e65726044820152606401610380565b610443828261093e565b60606004805461025990610be2565b3360009081526001602090815260408083206001600160a01b03861684529091528120548281101561053c5760405162461bcd60e51b815260206004820152602560248201527f45524332303a2064656372656173656420616c6c6f77616e63652062656c6f77604482015264207a65726f60d81b6064820152608401610380565b61054b33856103988685610bcb565b5060019392505050565b60006102e9338484610687565b6001600160a01b0383166105c45760405162461bcd60e51b8152602060048201526024808201527f45524332303a20617070726f76652066726f6d20746865207a65726f206164646044820152637265737360e01b6064820152608401610380565b6001600160a01b0382166106255760405162461bcd60e51b815260206004820152602260248201527f45524332303a20617070726f766520746f20746865207a65726f206164647265604482015261737360f01b6064820152608401610380565b6001600160a01b0383811660008181526001602090815260408083209487168084529482529182902085905590518481527f8c5be1e5ebec7d5bd14f71427d1e84f3dd0314c0f7b2291e5b200ac8c7c3b92591015b60405180910390a3505050565b6001600160a01b0383166106eb5760405162461bcd60e51b815260206004820152602560248201527f45524332303a207472616e736665722066726f6d20746865207a65726f206164604482015264647265737360d81b6064820152608401610380565b6001600160a01b03821661074d5760405162461bcd60e51b815260206004820152602360248201527f45524332303a207472616e7366657220746f20746865207a65726f206164647260448201526265737360e81b6064820152608401610380565b6001600160a01b038316600090815260208190526040902054818110156107c55760405162461bcd60e51b815260206004820152602660248201527f45524332303a207472616e7366657220616d6f756e7420657863656564732062604482015265616c616e636560d01b6064820152608401610380565b6107cf8282610bcb565b6001600160a01b038086166000908152602081905260408082209390935590851681529081208054849290610805908490610bb3565b92505081905550826001600160a01b0316846001600160a01b03167fddf252ad1be2c89b69c2b068fc378daa952ba7f163c4a11628f55a4df523b3ef8460405161085191815260200190565b60405180910390a350505050565b6001600160a01b0382166108b55760405162461bcd60e51b815260206004820152601f60248201527f45524332303a206d696e7420746f20746865207a65726f2061646472657373006044820152606401610380565b80600260008282546108c79190610bb3565b90915550506001600160a01b038216600090815260208190526040812080548392906108f4908490610bb3565b90915550506040518181526001600160a01b038316906000907fddf252ad1be2c89b69c2b068fc378daa952ba7f163c4a11628f55a4df523b3ef9060200160405180910390a35050565b6001600160a01b03821661099e5760405162461bcd60e51b815260206004820152602160248201527f45524332303a206275726e2066726f6d20746865207a65726f206164647265736044820152607360f81b6064820152608401610380565b6001600160a01b03821660009081526020819052604090205481811015610a125760405162461bcd60e51b815260206004820152602260248201527f45524332303a206275726e20616d6f756e7420657863656564732062616c616e604482015261636560f01b6064820152608401610380565b610a1c8282610bcb565b6001600160a01b03841660009081526020819052604081209190915560028054849290610a4a908490610bcb565b90915550506040518281526000906001600160a01b038516907fddf252ad1be2c89b69c2b068fc378daa952ba7f163c4a11628f55a4df523b3ef9060200161067a565b80356001600160a01b0381168114610aa457600080fd5b919050565b600060208284031215610aba578081fd5b610ac382610a8d565b9392505050565b60008060408385031215610adc578081fd5b610ae583610a8d565b9150610af360208401610a8d565b90509250929050565b600080600060608486031215610b10578081fd5b610b1984610a8d565b9250610b2760208501610a8d565b9150604084013590509250925092565b60008060408385031215610b49578182fd5b610b5283610a8d565b946020939093013593505050565b6000602080835283518082850152825b81811015610b8c57858101830151858201604001528201610b70565b81811115610b9d5783604083870101525b50601f01601f1916929092016040019392505050565b60008219821115610bc657610bc6610c1d565b500190565b600082821015610bdd57610bdd610c1d565b500390565b600181811c90821680610bf657607f821691505b60208210811415610c1757634e487b7160e01b600052602260045260246000fd5b50919050565b634e487b7160e01b600052601160045260246000fdfea26469706673582212200781ecb1275d8744c18e3c0d04594e28489e394d7cae5d41150cb9f7e57c9dcb64736f6c6343000804003360806040523480156200001157600080fd5b506040516200220f3803806200220f83398101604081905262000034916200029e565b6040805180820182526008815267437279707475726560c01b60208083019182528351808501909452600484526310d4941560e21b9084015281519192916200008091600091620001b5565b50805162000096906001906020840190620001b5565b50508151620000ae9150600b906020840190620001b5565b50600c80546001600160a01b03191633179055600e805462ffffff1916610102179055604080516020808201909252600080825260029052600f9091526200011a907fa74ba3945261e09fde15ba3db55005b205e61eeb4ad811ac0faa2b315bffeead90600162000244565b5060408051602080820190925260018082526000819052600f90925262000164917f169f97de0d9a84d840042b17d3c6b9638b3d6fd9024c9eb0c7a306a17b49f88f919062000244565b506040805160208082019092526002815260008052600f909152620001ad907ff4803e074bd026baaf6ed2e288c9515f68c72fb7216eebdd7cae1718a53ec37590600162000244565b5050620003c7565b828054620001c39062000374565b90600052602060002090601f016020900481019282620001e7576000855562000232565b82601f106200020257805160ff191683800117855562000232565b8280016001018555821562000232579182015b828111156200023257825182559160200191906001019062000215565b506200024092915062000287565b5090565b82805482825590600052602060002090810192821562000232579160200282015b8281111562000232578251829060ff1690559160200191906001019062000265565b5b8082111562000240576000815560010162000288565b60006020808385031215620002b1578182fd5b82516001600160401b0380821115620002c8578384fd5b818501915085601f830112620002dc578384fd5b815181811115620002f157620002f1620003b1565b604051601f8201601f19908116603f011681019083821181831017156200031c576200031c620003b1565b81604052828152888684870101111562000334578687fd5b8693505b8284101562000357578484018601518185018701529285019262000338565b828411156200036857868684830101525b98975050505050505050565b600181811c908216806200038957607f821691505b60208210811415620003ab57634e487b7160e01b600052602260045260246000fd5b50919050565b634e487b7160e01b600052604160045260246000fd5b611e3880620003d76000396000f3fe608060405234801561001057600080fd5b50600436106101375760003560e01c80636352211e116100b8578063a22cb4651161007c578063a22cb4651461027c578063b51f8fd21461028f578063b88d4fde146102b7578063c87b56dd146102ca578063e6755ff9146102dd578063e985e9c51461030557600080fd5b80636352211e1461022a578063691562a01461023d57806370a08231146102505780638da5cb5b1461026357806395d89b411461027457600080fd5b806323b872dd116100ff57806323b872dd146101cb5780632f745c59146101de57806342842e0e146101f157806342966c68146102045780634f6ccce71461021757600080fd5b806301ffc9a71461013c57806306fdde0314610164578063081812fc14610179578063095ea7b3146101a457806318160ddd146101b9575b600080fd5b61014f61014a366004611b13565b610341565b60405190151581526020015b60405180910390f35b61016c610352565b60405161015b9190611c1b565b61018c610187366004611b4b565b6103e4565b6040516001600160a01b03909116815260200161015b565b6101b76101b2366004611aea565b61047e565b005b6008545b60405190815260200161015b565b6101b76101d9366004611972565b610594565b6101bd6101ec366004611aea565b6105c6565b6101b76101ff366004611972565b61065c565b6101b7610212366004611b4b565b610677565b6101bd610225366004611b4b565b6106f1565b61018c610238366004611b4b565b610792565b6101b761024b366004611abc565b610809565b6101bd61025e366004611926565b610c3c565b600c546001600160a01b031661018c565b61016c610cc3565b6101b761028a366004611a82565b610cd2565b6101bd61029d366004611b4b565b6000908152600d6020526040902060060180544290915590565b6101b76102c53660046119ad565b610d97565b61016c6102d8366004611b4b565b610dcf565b6101bd6102eb366004611b4b565b6000908152600d6020526040902060070180544290915590565b61014f610313366004611940565b6001600160a01b03918216600090815260056020908152604080832093909416825291909152205460ff1690565b600061034c82610eaa565b92915050565b60606000805461036190611d40565b80601f016020809104026020016040519081016040528092919081815260200182805461038d90611d40565b80156103da5780601f106103af576101008083540402835291602001916103da565b820191906000526020600020905b8154815290600101906020018083116103bd57829003601f168201915b5050505050905090565b6000818152600260205260408120546001600160a01b03166104625760405162461bcd60e51b815260206004820152602c60248201527f4552433732313a20617070726f76656420717565727920666f72206e6f6e657860448201526b34b9ba32b73a103a37b5b2b760a11b60648201526084015b60405180910390fd5b506000908152600460205260409020546001600160a01b031690565b600061048982610792565b9050806001600160a01b0316836001600160a01b031614156104f75760405162461bcd60e51b815260206004820152602160248201527f4552433732313a20617070726f76616c20746f2063757272656e74206f776e656044820152603960f91b6064820152608401610459565b336001600160a01b038216148061051357506105138133610313565b6105855760405162461bcd60e51b815260206004820152603860248201527f4552433732313a20617070726f76652063616c6c6572206973206e6f74206f7760448201527f6e6572206e6f7220617070726f76656420666f7220616c6c00000000000000006064820152608401610459565b61058f8383610ecf565b505050565b61059f335b82610f3d565b6105bb5760405162461bcd60e51b815260040161045990611c80565b61058f838383611034565b60006105d183610c3c565b82106106335760405162461bcd60e51b815260206004820152602b60248201527f455243373231456e756d657261626c653a206f776e657220696e646578206f7560448201526a74206f6620626f756e647360a81b6064820152608401610459565b506001600160a01b03919091166000908152600660209081526040808320938352929052205490565b61058f83838360405180602001604052806000815250610d97565b61068033610599565b6106e55760405162461bcd60e51b815260206004820152603060248201527f4552433732314275726e61626c653a2063616c6c6572206973206e6f74206f7760448201526f1b995c881b9bdc88185c1c1c9bdd995960821b6064820152608401610459565b6106ee816111df565b50565b60006106fc60085490565b821061075f5760405162461bcd60e51b815260206004820152602c60248201527f455243373231456e756d657261626c653a20676c6f62616c20696e646578206f60448201526b7574206f6620626f756e647360a01b6064820152608401610459565b6008828154811061078057634e487b7160e01b600052603260045260246000fd5b90600052602060002001549050919050565b6000818152600260205260408120546001600160a01b03168061034c5760405162461bcd60e51b815260206004820152602960248201527f4552433732313a206f776e657220717565727920666f72206e6f6e657869737460448201526832b73a103a37b5b2b760b91b6064820152608401610459565b600c546001600160a01b031633146108635760405162461bcd60e51b815260206004820181905260248201527f4f776e61626c653a2063616c6c6572206973206e6f7420746865206f776e65726044820152606401610459565b600061086e600a5490565b905061087a8382611286565b600382600381111561089c57634e487b7160e01b600052602160045260246000fd5b14610a3c576000600f60008460038111156108c757634e487b7160e01b600052602160045260246000fd5b60038111156108e657634e487b7160e01b600052602160045260246000fd5b815260200190815260200160002080549050423360405160200161090b929190611bbe565b6040516020818303038152906040528051906020012060001c61092e9190611d96565b90506000600f600085600381111561095657634e487b7160e01b600052602160045260246000fd5b600381111561097557634e487b7160e01b600052602160045260246000fd5b815260200190815260200160002082815481106109a257634e487b7160e01b600052603260045260246000fd5b600091825260208083209091015460408051610100810182529182526001828401818152838301868152600a606086018181526080870182815260a088019283524260c0890181815260e08a019182528e8c52600d909a529690992096518755925193860193909355516002850155516003840155935160048301559251600582015590516006820155905160079091015550610c2e9050565b600060044233604051602001610a53929190611bbe565b6040516020818303038152906040528051906020012060001c610a769190611d96565b6003811115610a9557634e487b7160e01b600052602160045260246000fd5b90506000600f6000836003811115610abd57634e487b7160e01b600052602160045260246000fd5b6003811115610adc57634e487b7160e01b600052602160045260246000fd5b8152602001908152602001600020805490504233604051602001610b01929190611bbe565b6040516020818303038152906040528051906020012060001c610b249190611d96565b90506000600f6000866003811115610b4c57634e487b7160e01b600052602160045260246000fd5b6003811115610b6b57634e487b7160e01b600052602160045260246000fd5b81526020019081526020016000208281548110610b9857634e487b7160e01b600052603260045260246000fd5b600091825260208083209091015460408051610100810182529182526001828401818152838301868152600a606086018181526080870182815260a088019283524260c0890181815260e08a019182528f8c52600d909a52969099209651875592519386019390935551600285015551600384015593516004830155925160058201559051600682015590516007909101555050505b61058f600a80546001019055565b60006001600160a01b038216610ca75760405162461bcd60e51b815260206004820152602a60248201527f4552433732313a2062616c616e636520717565727920666f7220746865207a65604482015269726f206164647265737360b01b6064820152608401610459565b506001600160a01b031660009081526003602052604090205490565b60606001805461036190611d40565b6001600160a01b038216331415610d2b5760405162461bcd60e51b815260206004820152601960248201527f4552433732313a20617070726f766520746f2063616c6c6572000000000000006044820152606401610459565b3360008181526005602090815260408083206001600160a01b03871680855290835292819020805460ff191686151590811790915590519081529192917f17307eab39ab6107e8899845ad3d59bd9653f200f220920489ca2b5937696c31910160405180910390a35050565b610da13383610f3d565b610dbd5760405162461bcd60e51b815260040161045990611c80565b610dc9848484846113d4565b50505050565b6000818152600260205260409020546060906001600160a01b0316610e4e5760405162461bcd60e51b815260206004820152602f60248201527f4552433732314d657461646174613a2055524920717565727920666f72206e6f60448201526e3732bc34b9ba32b73a103a37b5b2b760891b6064820152608401610459565b6000610e58611407565b90506000815111610e785760405180602001604052806000815250610ea3565b80610e8284611416565b604051602001610e93929190611b8f565b6040516020818303038152906040525b9392505050565b60006001600160e01b0319821663780e9d6360e01b148061034c575061034c82611530565b600081815260046020526040902080546001600160a01b0319166001600160a01b0384169081179091558190610f0482610792565b6001600160a01b03167f8c5be1e5ebec7d5bd14f71427d1e84f3dd0314c0f7b2291e5b200ac8c7c3b92560405160405180910390a45050565b6000818152600260205260408120546001600160a01b0316610fb65760405162461bcd60e51b815260206004820152602c60248201527f4552433732313a206f70657261746f7220717565727920666f72206e6f6e657860448201526b34b9ba32b73a103a37b5b2b760a11b6064820152608401610459565b6000610fc183610792565b9050806001600160a01b0316846001600160a01b03161480610ffc5750836001600160a01b0316610ff1846103e4565b6001600160a01b0316145b8061102c57506001600160a01b0380821660009081526005602090815260408083209388168352929052205460ff165b949350505050565b826001600160a01b031661104782610792565b6001600160a01b0316146110af5760405162461bcd60e51b815260206004820152602960248201527f4552433732313a207472616e73666572206f6620746f6b656e2074686174206960448201526839903737ba1037bbb760b91b6064820152608401610459565b6001600160a01b0382166111115760405162461bcd60e51b8152602060048201526024808201527f4552433732313a207472616e7366657220746f20746865207a65726f206164646044820152637265737360e01b6064820152608401610459565b61111c838383611580565b611127600082610ecf565b6001600160a01b0383166000908152600360205260408120805460019290611150908490611cfd565b90915550506001600160a01b038216600090815260036020526040812080546001929061117e908490611cd1565b909155505060008181526002602052604080822080546001600160a01b0319166001600160a01b0386811691821790925591518493918716917fddf252ad1be2c89b69c2b068fc378daa952ba7f163c4a11628f55a4df523b3ef91a4505050565b60006111ea82610792565b90506111f881600084611580565b611203600083610ecf565b6001600160a01b038116600090815260036020526040812080546001929061122c908490611cfd565b909155505060008281526002602052604080822080546001600160a01b0319169055518391906001600160a01b038416907fddf252ad1be2c89b69c2b068fc378daa952ba7f163c4a11628f55a4df523b3ef908390a45050565b6001600160a01b0382166112dc5760405162461bcd60e51b815260206004820181905260248201527f4552433732313a206d696e7420746f20746865207a65726f20616464726573736044820152606401610459565b6000818152600260205260409020546001600160a01b0316156113415760405162461bcd60e51b815260206004820152601c60248201527f4552433732313a20746f6b656e20616c7265616479206d696e746564000000006044820152606401610459565b61134d60008383611580565b6001600160a01b0382166000908152600360205260408120805460019290611376908490611cd1565b909155505060008181526002602052604080822080546001600160a01b0319166001600160a01b03861690811790915590518392907fddf252ad1be2c89b69c2b068fc378daa952ba7f163c4a11628f55a4df523b3ef908290a45050565b6113df848484611034565b6113eb8484848461158b565b610dc95760405162461bcd60e51b815260040161045990611c2e565b6060600b805461036190611d40565b60608161143a5750506040805180820190915260018152600360fc1b602082015290565b8160005b8115611464578061144e81611d7b565b915061145d9050600a83611ce9565b915061143e565b60008167ffffffffffffffff81111561148d57634e487b7160e01b600052604160045260246000fd5b6040519080825280601f01601f1916602001820160405280156114b7576020820181803683370190505b5090505b841561102c576114cc600183611cfd565b91506114d9600a86611d96565b6114e4906030611cd1565b60f81b81838151811061150757634e487b7160e01b600052603260045260246000fd5b60200101906001600160f81b031916908160001a905350611529600a86611ce9565b94506114bb565b60006001600160e01b031982166380ac58cd60e01b148061156157506001600160e01b03198216635b5e139f60e01b145b8061034c57506301ffc9a760e01b6001600160e01b031983161461034c565b61058f838383611698565b60006001600160a01b0384163b1561168d57604051630a85bd0160e11b81526001600160a01b0385169063150b7a02906115cf903390899088908890600401611bde565b602060405180830381600087803b1580156115e957600080fd5b505af1925050508015611619575060408051601f3d908101601f1916820190925261161691810190611b2f565b60015b611673573d808015611647576040519150601f19603f3d011682016040523d82523d6000602084013e61164c565b606091505b50805161166b5760405162461bcd60e51b815260040161045990611c2e565b805181602001fd5b6001600160e01b031916630a85bd0160e11b14905061102c565b506001949350505050565b6001600160a01b0383166116f3576116ee81600880546000838152600960205260408120829055600182018355919091527ff3f7a9fe364faab93b216da50a3214154f22a0a2b415b23a84c8169e8b636ee30155565b611716565b816001600160a01b0316836001600160a01b031614611716576117168382611750565b6001600160a01b03821661172d5761058f816117ed565b826001600160a01b0316826001600160a01b03161461058f5761058f82826118c6565b6000600161175d84610c3c565b6117679190611cfd565b6000838152600760205260409020549091508082146117ba576001600160a01b03841660009081526006602090815260408083208584528252808320548484528184208190558352600790915290208190555b5060009182526007602090815260408084208490556001600160a01b039094168352600681528383209183525290812055565b6008546000906117ff90600190611cfd565b6000838152600960205260408120546008805493945090928490811061183557634e487b7160e01b600052603260045260246000fd5b90600052602060002001549050806008838154811061186457634e487b7160e01b600052603260045260246000fd5b60009182526020808320909101929092558281526009909152604080822084905585825281205560088054806118aa57634e487b7160e01b600052603160045260246000fd5b6001900381819060005260206000200160009055905550505050565b60006118d183610c3c565b6001600160a01b039093166000908152600660209081526040808320868452825280832085905593825260079052919091209190915550565b80356001600160a01b038116811461192157600080fd5b919050565b600060208284031215611937578081fd5b610ea38261190a565b60008060408385031215611952578081fd5b61195b8361190a565b91506119696020840161190a565b90509250929050565b600080600060608486031215611986578081fd5b61198f8461190a565b925061199d6020850161190a565b9150604084013590509250925092565b600080600080608085870312156119c2578081fd5b6119cb8561190a565b93506119d96020860161190a565b925060408501359150606085013567ffffffffffffffff808211156119fc578283fd5b818701915087601f830112611a0f578283fd5b813581811115611a2157611a21611dd6565b604051601f8201601f19908116603f01168101908382118183101715611a4957611a49611dd6565b816040528281528a6020848701011115611a61578586fd5b82602086016020830137918201602001949094529598949750929550505050565b60008060408385031215611a94578182fd5b611a9d8361190a565b915060208301358015158114611ab1578182fd5b809150509250929050565b60008060408385031215611ace578182fd5b611ad78361190a565b9150602083013560048110611ab1578182fd5b60008060408385031215611afc578182fd5b611b058361190a565b946020939093013593505050565b600060208284031215611b24578081fd5b8135610ea381611dec565b600060208284031215611b40578081fd5b8151610ea381611dec565b600060208284031215611b5c578081fd5b5035919050565b60008151808452611b7b816020860160208601611d14565b601f01601f19169290920160200192915050565b60008351611ba1818460208801611d14565b835190830190611bb5818360208801611d14565b01949350505050565b91825260601b6bffffffffffffffffffffffff1916602082015260340190565b6001600160a01b0385811682528416602082015260408101839052608060608201819052600090611c1190830184611b63565b9695505050505050565b602081526000610ea36020830184611b63565b60208082526032908201527f4552433732313a207472616e7366657220746f206e6f6e20455243373231526560408201527131b2b4bb32b91034b6b83632b6b2b73a32b960711b606082015260800190565b60208082526031908201527f4552433732313a207472616e736665722063616c6c6572206973206e6f74206f6040820152701ddb995c881b9bdc88185c1c1c9bdd9959607a1b606082015260800190565b60008219821115611ce457611ce4611daa565b500190565b600082611cf857611cf8611dc0565b500490565b600082821015611d0f57611d0f611daa565b500390565b60005b83811015611d2f578181015183820152602001611d17565b83811115610dc95750506000910152565b600181811c90821680611d5457607f821691505b60208210811415611d7557634e487b7160e01b600052602260045260246000fd5b50919050565b6000600019821415611d8f57611d8f611daa565b5060010190565b600082611da557611da5611dc0565b500690565b634e487b7160e01b600052601160045260246000fd5b634e487b7160e01b600052601260045260246000fd5b634e487b7160e01b600052604160045260246000fd5b6001600160e01b0319811681146106ee57600080fdfea26469706673582212203945d79083356630f94b6de33413d8096bc36e6ada826c15ab6dfa96abc273fc64736f6c63430008040033",
    "sourcePath": "c:/Users/hbnat/Desktop/cryptures/manager.sol",
    "compiler": {
        "name": "solc",
        "version": "0.8.4+commit.c7e474f2"
    },
    "functionHashes": {
        "battle(uint256,uint256)": "2a0c5221",
        "buyCrypture(uint8)": "c72b344d",
        "buyCryptureWithToken(uint8)": "66acf656",
        "cherishol()": "b7be6063",
        "cryptures()": "d62277cb",
        "feedCrypture(uint256)": "ff5ee594",
        "washCrypture(uint256)": "745d2d3e"
    },
    "gasEstimates": {
        "creation": {
            "codeDepositCost": "287400",
            "executionCost": "infinite",
            "totalCost": "infinite"
        },
        "external": {
            "battle(uint256,uint256)": "237",
            "buyCrypture(uint8)": "infinite",
            "buyCryptureWithToken(uint8)": "infinite",
            "cherishol()": "1025",
            "cryptures()": "1069",
            "feedCrypture(uint256)": "infinite",
            "washCrypture(uint256)": "infinite"
        }
    }
}