{
    "contractName": "Cryptures",
    "abi": [
        {
            "inputs": [
                {
                    "internalType": "string",
                    "name": "baseTokenURI",
                    "type": "string"
                }
            ],
            "stateMutability": "nonpayable",
            "type": "constructor"
        },
        {
            "anonymous": false,
            "inputs": [
                {
                    "indexed": true,
                    "internalType": "address",
                    "name": "owner",
                    "type": "address"
                },
                {
                    "indexed": true,
                    "internalType": "address",
                    "name": "approved",
                    "type": "address"
                },
                {
                    "indexed": true,
                    "internalType": "uint256",
                    "name": "tokenId",
                    "type": "uint256"
                }
            ],
            "name": "Approval",
            "type": "event"
        },
        {
            "anonymous": false,
            "inputs": [
                {
                    "indexed": true,
                    "internalType": "address",
                    "name": "owner",
                    "type": "address"
                },
                {
                    "indexed": true,
                    "internalType": "address",
                    "name": "operator",
                    "type": "address"
                },
                {
                    "indexed": false,
                    "internalType": "bool",
                    "name": "approved",
                    "type": "bool"
                }
            ],
            "name": "ApprovalForAll",
            "type": "event"
        },
        {
            "anonymous": false,
            "inputs": [
                {
                    "indexed": true,
                    "internalType": "address",
                    "name": "from",
                    "type": "address"
                },
                {
                    "indexed": true,
                    "internalType": "address",
                    "name": "to",
                    "type": "address"
                },
                {
                    "indexed": true,
                    "internalType": "uint256",
                    "name": "tokenId",
                    "type": "uint256"
                }
            ],
            "name": "Transfer",
            "type": "event"
        },
        {
            "inputs": [
                {
                    "internalType": "address",
                    "name": "to",
                    "type": "address"
                },
                {
                    "internalType": "uint256",
                    "name": "tokenId",
                    "type": "uint256"
                }
            ],
            "name": "approve",
            "outputs": [],
            "stateMutability": "nonpayable",
            "type": "function"
        },
        {
            "inputs": [
                {
                    "internalType": "address",
                    "name": "owner",
                    "type": "address"
                }
            ],
            "name": "balanceOf",
            "outputs": [
                {
                    "internalType": "uint256",
                    "name": "",
                    "type": "uint256"
                }
            ],
            "stateMutability": "view",
            "type": "function"
        },
        {
            "inputs": [
                {
                    "internalType": "uint256",
                    "name": "tokenId",
                    "type": "uint256"
                }
            ],
            "name": "burn",
            "outputs": [],
            "stateMutability": "nonpayable",
            "type": "function"
        },
        {
            "inputs": [
                {
                    "internalType": "uint256",
                    "name": "id",
                    "type": "uint256"
                }
            ],
            "name": "feedCreatureFromId",
            "outputs": [
                {
                    "internalType": "uint256",
                    "name": "",
                    "type": "uint256"
                }
            ],
            "stateMutability": "nonpayable",
            "type": "function"
        },
        {
            "inputs": [
                {
                    "internalType": "uint256",
                    "name": "tokenId",
                    "type": "uint256"
                }
            ],
            "name": "getApproved",
            "outputs": [
                {
                    "internalType": "address",
                    "name": "",
                    "type": "address"
                }
            ],
            "stateMutability": "view",
            "type": "function"
        },
        {
            "inputs": [
                {
                    "internalType": "uint256",
                    "name": "id",
                    "type": "uint256"
                }
            ],
            "name": "getCryptureAttack",
            "outputs": [
                {
                    "components": [
                        {
                            "internalType": "string",
                            "name": "name",
                            "type": "string"
                        },
                        {
                            "internalType": "enum Cryptures.CrypturesAttackType",
                            "name": "attackType",
                            "type": "uint8"
                        },
                        {
                            "internalType": "uint256",
                            "name": "power",
                            "type": "uint256"
                        },
                        {
                            "internalType": "uint256",
                            "name": "precision",
                            "type": "uint256"
                        },
                        {
                            "internalType": "uint256",
                            "name": "timesToUse",
                            "type": "uint256"
                        }
                    ],
                    "internalType": "struct Cryptures.CrypturesAttack",
                    "name": "",
                    "type": "tuple"
                }
            ],
            "stateMutability": "view",
            "type": "function"
        },
        {
            "inputs": [
                {
                    "internalType": "uint256",
                    "name": "id",
                    "type": "uint256"
                }
            ],
            "name": "getCryptureBaseStats",
            "outputs": [
                {
                    "components": [
                        {
                            "internalType": "enum Cryptures.CrypturesType",
                            "name": "cryptureType",
                            "type": "uint8"
                        },
                        {
                            "components": [
                                {
                                    "internalType": "uint256",
                                    "name": "min",
                                    "type": "uint256"
                                },
                                {
                                    "internalType": "uint256",
                                    "name": "max",
                                    "type": "uint256"
                                }
                            ],
                            "internalType": "struct Cryptures.MinMax",
                            "name": "healthPoints",
                            "type": "tuple"
                        },
                        {
                            "components": [
                                {
                                    "internalType": "uint256",
                                    "name": "min",
                                    "type": "uint256"
                                },
                                {
                                    "internalType": "uint256",
                                    "name": "max",
                                    "type": "uint256"
                                }
                            ],
                            "internalType": "struct Cryptures.MinMax",
                            "name": "attack",
                            "type": "tuple"
                        },
                        {
                            "components": [
                                {
                                    "internalType": "uint256",
                                    "name": "min",
                                    "type": "uint256"
                                },
                                {
                                    "internalType": "uint256",
                                    "name": "max",
                                    "type": "uint256"
                                }
                            ],
                            "internalType": "struct Cryptures.MinMax",
                            "name": "defense",
                            "type": "tuple"
                        },
                        {
                            "components": [
                                {
                                    "internalType": "uint256",
                                    "name": "min",
                                    "type": "uint256"
                                },
                                {
                                    "internalType": "uint256",
                                    "name": "max",
                                    "type": "uint256"
                                }
                            ],
                            "internalType": "struct Cryptures.MinMax",
                            "name": "speed",
                            "type": "tuple"
                        },
                        {
                            "components": [
                                {
                                    "internalType": "uint256",
                                    "name": "min",
                                    "type": "uint256"
                                },
                                {
                                    "internalType": "uint256",
                                    "name": "max",
                                    "type": "uint256"
                                }
                            ],
                            "internalType": "struct Cryptures.MinMax",
                            "name": "specialAttack",
                            "type": "tuple"
                        },
                        {
                            "components": [
                                {
                                    "internalType": "uint256",
                                    "name": "min",
                                    "type": "uint256"
                                },
                                {
                                    "internalType": "uint256",
                                    "name": "max",
                                    "type": "uint256"
                                }
                            ],
                            "internalType": "struct Cryptures.MinMax",
                            "name": "specialDefense",
                            "type": "tuple"
                        }
                    ],
                    "internalType": "struct Cryptures.CryptureBaseStats",
                    "name": "",
                    "type": "tuple"
                }
            ],
            "stateMutability": "view",
            "type": "function"
        },
        {
            "inputs": [
                {
                    "internalType": "uint256",
                    "name": "id",
                    "type": "uint256"
                }
            ],
            "name": "getCryptureCompleteInfo",
            "outputs": [
                {
                    "components": [
                        {
                            "internalType": "uint256",
                            "name": "id",
                            "type": "uint256"
                        },
                        {
                            "internalType": "uint8",
                            "name": "level",
                            "type": "uint8"
                        },
                        {
                            "internalType": "uint256",
                            "name": "xp",
                            "type": "uint256"
                        },
                        {
                            "internalType": "uint256",
                            "name": "wins",
                            "type": "uint256"
                        },
                        {
                            "internalType": "uint256",
                            "name": "losses",
                            "type": "uint256"
                        },
                        {
                            "internalType": "uint256",
                            "name": "fedDate",
                            "type": "uint256"
                        },
                        {
                            "internalType": "uint256",
                            "name": "washedDate",
                            "type": "uint256"
                        },
                        {
                            "internalType": "enum Cryptures.CrypturesType",
                            "name": "cryptureType",
                            "type": "uint8"
                        },
                        {
                            "internalType": "uint256",
                            "name": "healthPoints",
                            "type": "uint256"
                        },
                        {
                            "internalType": "uint256",
                            "name": "attack",
                            "type": "uint256"
                        },
                        {
                            "internalType": "uint256",
                            "name": "defense",
                            "type": "uint256"
                        },
                        {
                            "internalType": "uint256",
                            "name": "speed",
                            "type": "uint256"
                        },
                        {
                            "internalType": "uint256",
                            "name": "specialAttack",
                            "type": "uint256"
                        },
                        {
                            "internalType": "uint256",
                            "name": "specialDefense",
                            "type": "uint256"
                        },
                        {
                            "components": [
                                {
                                    "internalType": "string",
                                    "name": "name",
                                    "type": "string"
                                },
                                {
                                    "internalType": "enum Cryptures.CrypturesAttackType",
                                    "name": "attackType",
                                    "type": "uint8"
                                },
                                {
                                    "internalType": "uint256",
                                    "name": "power",
                                    "type": "uint256"
                                },
                                {
                                    "internalType": "uint256",
                                    "name": "precision",
                                    "type": "uint256"
                                },
                                {
                                    "internalType": "uint256",
                                    "name": "timesToUse",
                                    "type": "uint256"
                                }
                            ],
                            "internalType": "struct Cryptures.CrypturesAttack[]",
                            "name": "attacks",
                            "type": "tuple[]"
                        }
                    ],
                    "internalType": "struct Cryptures.CryptureCompleteInfo",
                    "name": "",
                    "type": "tuple"
                }
            ],
            "stateMutability": "view",
            "type": "function"
        },
        {
            "inputs": [
                {
                    "internalType": "uint256",
                    "name": "id",
                    "type": "uint256"
                }
            ],
            "name": "getCryptureInfo",
            "outputs": [
                {
                    "components": [
                        {
                            "internalType": "uint256",
                            "name": "id",
                            "type": "uint256"
                        },
                        {
                            "internalType": "uint8",
                            "name": "level",
                            "type": "uint8"
                        },
                        {
                            "internalType": "uint256",
                            "name": "xp",
                            "type": "uint256"
                        },
                        {
                            "internalType": "uint256",
                            "name": "wins",
                            "type": "uint256"
                        },
                        {
                            "internalType": "uint256",
                            "name": "losses",
                            "type": "uint256"
                        },
                        {
                            "internalType": "uint256",
                            "name": "fedDate",
                            "type": "uint256"
                        },
                        {
                            "internalType": "uint256",
                            "name": "washedDate",
                            "type": "uint256"
                        },
                        {
                            "internalType": "uint8[]",
                            "name": "attacks",
                            "type": "uint8[]"
                        }
                    ],
                    "internalType": "struct Cryptures.CryptureInfo",
                    "name": "",
                    "type": "tuple"
                }
            ],
            "stateMutability": "view",
            "type": "function"
        },
        {
            "inputs": [
                {
                    "components": [
                        {
                            "internalType": "enum Cryptures.CrypturesType",
                            "name": "cryptureType",
                            "type": "uint8"
                        },
                        {
                            "components": [
                                {
                                    "internalType": "uint256",
                                    "name": "min",
                                    "type": "uint256"
                                },
                                {
                                    "internalType": "uint256",
                                    "name": "max",
                                    "type": "uint256"
                                }
                            ],
                            "internalType": "struct Cryptures.MinMax",
                            "name": "healthPoints",
                            "type": "tuple"
                        },
                        {
                            "components": [
                                {
                                    "internalType": "uint256",
                                    "name": "min",
                                    "type": "uint256"
                                },
                                {
                                    "internalType": "uint256",
                                    "name": "max",
                                    "type": "uint256"
                                }
                            ],
                            "internalType": "struct Cryptures.MinMax",
                            "name": "attack",
                            "type": "tuple"
                        },
                        {
                            "components": [
                                {
                                    "internalType": "uint256",
                                    "name": "min",
                                    "type": "uint256"
                                },
                                {
                                    "internalType": "uint256",
                                    "name": "max",
                                    "type": "uint256"
                                }
                            ],
                            "internalType": "struct Cryptures.MinMax",
                            "name": "defense",
                            "type": "tuple"
                        },
                        {
                            "components": [
                                {
                                    "internalType": "uint256",
                                    "name": "min",
                                    "type": "uint256"
                                },
                                {
                                    "internalType": "uint256",
                                    "name": "max",
                                    "type": "uint256"
                                }
                            ],
                            "internalType": "struct Cryptures.MinMax",
                            "name": "speed",
                            "type": "tuple"
                        },
                        {
                            "components": [
                                {
                                    "internalType": "uint256",
                                    "name": "min",
                                    "type": "uint256"
                                },
                                {
                                    "internalType": "uint256",
                                    "name": "max",
                                    "type": "uint256"
                                }
                            ],
                            "internalType": "struct Cryptures.MinMax",
                            "name": "specialAttack",
                            "type": "tuple"
                        },
                        {
                            "components": [
                                {
                                    "internalType": "uint256",
                                    "name": "min",
                                    "type": "uint256"
                                },
                                {
                                    "internalType": "uint256",
                                    "name": "max",
                                    "type": "uint256"
                                }
                            ],
                            "internalType": "struct Cryptures.MinMax",
                            "name": "specialDefense",
                            "type": "tuple"
                        }
                    ],
                    "internalType": "struct Cryptures.CryptureBaseStats",
                    "name": "baseStats",
                    "type": "tuple"
                },
                {
                    "internalType": "uint256",
                    "name": "level",
                    "type": "uint256"
                }
            ],
            "name": "getStatByLevel",
            "outputs": [
                {
                    "components": [
                        {
                            "internalType": "enum Cryptures.CrypturesType",
                            "name": "cryptureType",
                            "type": "uint8"
                        },
                        {
                            "internalType": "uint256",
                            "name": "healthPoints",
                            "type": "uint256"
                        },
                        {
                            "internalType": "uint256",
                            "name": "attack",
                            "type": "uint256"
                        },
                        {
                            "internalType": "uint256",
                            "name": "defense",
                            "type": "uint256"
                        },
                        {
                            "internalType": "uint256",
                            "name": "speed",
                            "type": "uint256"
                        },
                        {
                            "internalType": "uint256",
                            "name": "specialAttack",
                            "type": "uint256"
                        },
                        {
                            "internalType": "uint256",
                            "name": "specialDefense",
                            "type": "uint256"
                        }
                    ],
                    "internalType": "struct Cryptures.CryptureStats",
                    "name": "",
                    "type": "tuple"
                }
            ],
            "stateMutability": "pure",
            "type": "function"
        },
        {
            "inputs": [
                {
                    "internalType": "address",
                    "name": "owner",
                    "type": "address"
                },
                {
                    "internalType": "address",
                    "name": "operator",
                    "type": "address"
                }
            ],
            "name": "isApprovedForAll",
            "outputs": [
                {
                    "internalType": "bool",
                    "name": "",
                    "type": "bool"
                }
            ],
            "stateMutability": "view",
            "type": "function"
        },
        {
            "inputs": [
                {
                    "internalType": "address",
                    "name": "to",
                    "type": "address"
                },
                {
                    "internalType": "enum Cryptures.CrypturesType",
                    "name": "cryptureType",
                    "type": "uint8"
                }
            ],
            "name": "mint",
            "outputs": [],
            "stateMutability": "nonpayable",
            "type": "function"
        },
        {
            "inputs": [],
            "name": "name",
            "outputs": [
                {
                    "internalType": "string",
                    "name": "",
                    "type": "string"
                }
            ],
            "stateMutability": "view",
            "type": "function"
        },
        {
            "inputs": [],
            "name": "owner",
            "outputs": [
                {
                    "internalType": "address",
                    "name": "",
                    "type": "address"
                }
            ],
            "stateMutability": "view",
            "type": "function"
        },
        {
            "inputs": [
                {
                    "internalType": "uint256",
                    "name": "tokenId",
                    "type": "uint256"
                }
            ],
            "name": "ownerOf",
            "outputs": [
                {
                    "internalType": "address",
                    "name": "",
                    "type": "address"
                }
            ],
            "stateMutability": "view",
            "type": "function"
        },
        {
            "inputs": [
                {
                    "internalType": "address",
                    "name": "from",
                    "type": "address"
                },
                {
                    "internalType": "address",
                    "name": "to",
                    "type": "address"
                },
                {
                    "internalType": "uint256",
                    "name": "tokenId",
                    "type": "uint256"
                }
            ],
            "name": "safeTransferFrom",
            "outputs": [],
            "stateMutability": "nonpayable",
            "type": "function"
        },
        {
            "inputs": [
                {
                    "internalType": "address",
                    "name": "from",
                    "type": "address"
                },
                {
                    "internalType": "address",
                    "name": "to",
                    "type": "address"
                },
                {
                    "internalType": "uint256",
                    "name": "tokenId",
                    "type": "uint256"
                },
                {
                    "internalType": "bytes",
                    "name": "_data",
                    "type": "bytes"
                }
            ],
            "name": "safeTransferFrom",
            "outputs": [],
            "stateMutability": "nonpayable",
            "type": "function"
        },
        {
            "inputs": [
                {
                    "internalType": "address",
                    "name": "operator",
                    "type": "address"
                },
                {
                    "internalType": "bool",
                    "name": "approved",
                    "type": "bool"
                }
            ],
            "name": "setApprovalForAll",
            "outputs": [],
            "stateMutability": "nonpayable",
            "type": "function"
        },
        {
            "inputs": [
                {
                    "internalType": "bytes4",
                    "name": "interfaceId",
                    "type": "bytes4"
                }
            ],
            "name": "supportsInterface",
            "outputs": [
                {
                    "internalType": "bool",
                    "name": "",
                    "type": "bool"
                }
            ],
            "stateMutability": "view",
            "type": "function"
        },
        {
            "inputs": [],
            "name": "symbol",
            "outputs": [
                {
                    "internalType": "string",
                    "name": "",
                    "type": "string"
                }
            ],
            "stateMutability": "view",
            "type": "function"
        },
        {
            "inputs": [
                {
                    "internalType": "uint256",
                    "name": "index",
                    "type": "uint256"
                }
            ],
            "name": "tokenByIndex",
            "outputs": [
                {
                    "internalType": "uint256",
                    "name": "",
                    "type": "uint256"
                }
            ],
            "stateMutability": "view",
            "type": "function"
        },
        {
            "inputs": [
                {
                    "internalType": "address",
                    "name": "owner",
                    "type": "address"
                },
                {
                    "internalType": "uint256",
                    "name": "index",
                    "type": "uint256"
                }
            ],
            "name": "tokenOfOwnerByIndex",
            "outputs": [
                {
                    "internalType": "uint256",
                    "name": "",
                    "type": "uint256"
                }
            ],
            "stateMutability": "view",
            "type": "function"
        },
        {
            "inputs": [
                {
                    "internalType": "uint256",
                    "name": "tokenId",
                    "type": "uint256"
                }
            ],
            "name": "tokenURI",
            "outputs": [
                {
                    "internalType": "string",
                    "name": "",
                    "type": "string"
                }
            ],
            "stateMutability": "view",
            "type": "function"
        },
        {
            "inputs": [],
            "name": "totalSupply",
            "outputs": [
                {
                    "internalType": "uint256",
                    "name": "",
                    "type": "uint256"
                }
            ],
            "stateMutability": "view",
            "type": "function"
        },
        {
            "inputs": [
                {
                    "internalType": "address",
                    "name": "from",
                    "type": "address"
                },
                {
                    "internalType": "address",
                    "name": "to",
                    "type": "address"
                },
                {
                    "internalType": "uint256",
                    "name": "tokenId",
                    "type": "uint256"
                }
            ],
            "name": "transferFrom",
            "outputs": [],
            "stateMutability": "nonpayable",
            "type": "function"
        },
        {
            "inputs": [
                {
                    "internalType": "uint256",
                    "name": "id",
                    "type": "uint256"
                }
            ],
            "name": "washCreatureFromId",
            "outputs": [
                {
                    "internalType": "uint256",
                    "name": "",
                    "type": "uint256"
                }
            ],
            "stateMutability": "nonpayable",
            "type": "function"
        }
    ],
    "bytecode": "60806040523480156200001157600080fd5b5060405162003d7838038062003d78833981016040819052620000349162000c08565b6040805180820182526008815267437279707475726560c01b60208083019182528351808501909452600484526310d4941560e21b908401528151919291620000809160009162000a7c565b5080516200009690600190602084019062000a7c565b50508151620000ae9150600b90602084019062000a7c565b50600c80546001600160a01b031916331790556040805160e0810182526002815281518083018352602d80825260c860208381019190915280840192909252835180850185526031808252605c828501819052858701929092528551808701875290815280840191909152606084015283518085018552604180825260bf8285018190526080860192909252855180870187529081528084019190915260a08401528351808501909452835260558382015260c082019290925260008052600d90915280517f81955a0a11e65eac625c29e8882660bae4e165a75d72780094acae8ece9a29ee8054909190829060ff19166001836003811115620001c257634e487b7160e01b600052602160045260246000fd5b021790555060208281015180516001808501919091559082015160028401556040808501518051600386015583015160048501556060850151805160058601558301516006850155608085015180516007860155830151600885015560a085015180516009860155830151600a85015560c0909401518051600b85015590910151600c90920191909155815160e08101909252819081526040805180820182526027815260bc6020828101919091528084019190915281518083018352603481526062818301528284015281518083018352602b8152605181830152606084015281518083018352603c815260708183015260808401528151808301835260328152605e8183015260a084015281518083019092526041825260798282015260c09092015260016000819052600d90915281517ffd54ff1ed53f34a900b24c5ba64f85761163b5d82d98a47b9bd80e45466993c580549092839160ff1916908360038111156200034257634e487b7160e01b600052602160045260246000fd5b02179055506020828101518051600184015581015160028301556040808401518051600385015582015160048401556060840151805160058501558201516006840155608084015180516007850155820151600884015560a084015180516009850155820151600a84015560c0909301518051600b8401550151600c90910155805160e081019091528060008152604080518082018252602c815260c6602082810191909152808401919091528151808301835260308152605a8183015282840152815180830183526041815260798183015260608401528151808301835260328152605e8183015260808401528151808301835282815260778183015260a08401528151808301909252602b825260518282015260c0909201526002600052600d905280517f10a81eed9d63d16face5e76357905348e6253d3394086026bb2bf2145d7cc2498054909190829060ff19166001836003811115620004b757634e487b7160e01b600052602160045260246000fd5b02179055506020828101518051600184810191909155908201516002808501919091556040808601518051600387015584015160048601556060860151805160058701558401516006860155608086015180516007870155840151600886015560a086015180516009870155840151600a86015560c0909501518051600b860155830151600c909401939093558351808301909452600080855292909252600f905262000586917fa74ba3945261e09fde15ba3db55005b205e61eeb4ad811ac0faa2b315bffeead9162000b0b565b5060408051602080820190925260018082526000819052600f909252620005d0917f169f97de0d9a84d840042b17d3c6b9638b3d6fd9024c9eb0c7a306a17b49f88f919062000b0b565b506040805160208082019092526002815260008052600f90915262000619907ff4803e074bd026baaf6ed2e288c9515f68c72fb7216eebdd7cae1718a53ec37590600162000b0b565b506040805160e081018252600660a08201818152655461636b6c6560d01b60c0840190815290835260006020840152602893830193909352606460608301526023608083015290916010916200067191839162000a7c565b50602082015160018083018054909160ff1990911690836003811115620006a857634e487b7160e01b600052602160045260246000fd5b021790555060408281015160028301556060808401516003840155608093840151600490930192909255805160e081018252600960a0820181815268056696e6520576869760bc1b60c0840190815290835260016020840152602d938301939093526064938201939093526019938101939093526015916200072c91839162000a7c565b50602082015160018083018054909160ff19909116908360038111156200076357634e487b7160e01b600052602160045260246000fd5b02179055506040820151816002015560608201518160030155608082015181600401559050506040518060a001604052806040518060400160405280600581526020016422b6b132b960d91b815250815260200160026003811115620007d957634e487b7160e01b600052602160045260246000fd5b8152602860208083019190915260646040830152601960609092019190915281518051601a926200080f92849291019062000a7c565b50602082015160018083018054909160ff19909116908360038111156200084657634e487b7160e01b600052602160045260246000fd5b02179055506040820151816002015560608201518160030155608082015181600401559050506040518060a00160405280604051806040016040528060098152602001682bb0ba32b91023bab760b91b8152508152602001600380811115620008bf57634e487b7160e01b600052602160045260246000fd5b8152602860208083019190915260646040830152601960609092019190915281518051601f92620008f592849291019062000a7c565b50602082015160018083018054909160ff19909116908360038111156200092c57634e487b7160e01b600052602160045260246000fd5b02179055506040820151816002015560608201518160030155608082015181600401559050506040518060400160405280600060ff168152602001600160ff1681525060246000600260038111156200099557634e487b7160e01b600052602160045260246000fd5b6003811115620009b557634e487b7160e01b600052602160045260246000fd5b81526020810191909152604001600020620009d291600262000b4e565b50604080518082019091526000808252600260208084018290526001909252602490915262000a23917fbbbb3b1da0cb0951f34c5e9db4606f934b7367b5284f29163e9e6fe67e1e97d69162000b4e565b5060408051808201909152600080825260036020808401919091529080526024905262000a74907fb7634ec2165a7280a285aac3ec10cf370eca86d8aa9d3243c90b2151434091ad90600262000b4e565b505062000d31565b82805462000a8a9062000cde565b90600052602060002090601f01602090048101928262000aae576000855562000af9565b82601f1062000ac957805160ff191683800117855562000af9565b8280016001018555821562000af9579182015b8281111562000af957825182559160200191906001019062000adc565b5062000b0792915062000bf1565b5090565b82805482825590600052602060002090810192821562000af9579160200282015b8281111562000af9578251829060ff1690559160200191906001019062000b2c565b82805482825590600052602060002090601f0160209004810192821562000af95791602002820160005b8382111562000bb857835183826101000a81548160ff021916908360ff160217905550926020019260010160208160000104928301926001030262000b78565b801562000be75782816101000a81549060ff021916905560010160208160000104928301926001030262000bb8565b505062000b079291505b5b8082111562000b07576000815560010162000bf2565b6000602080838503121562000c1b578182fd5b82516001600160401b038082111562000c32578384fd5b818501915085601f83011262000c46578384fd5b81518181111562000c5b5762000c5b62000d1b565b604051601f8201601f19908116603f0116810190838211818310171562000c865762000c8662000d1b565b81604052828152888684870101111562000c9e578687fd5b8693505b8284101562000cc1578484018601518185018701529285019262000ca2565b8284111562000cd257868684830101525b98975050505050505050565b600181811c9082168062000cf357607f821691505b6020821081141562000d1557634e487b7160e01b600052602260045260246000fd5b50919050565b634e487b7160e01b600052604160045260246000fd5b6130378062000d416000396000f3fe608060405234801561001057600080fd5b506004361061018e5760003560e01c806375b42794116100de578063b51f8fd211610097578063d36c44b511610071578063d36c44b514610394578063d663a9cc146103b4578063e6755ff9146103d4578063e985e9c5146103fc57600080fd5b8063b51f8fd214610346578063b88d4fde1461036e578063c87b56dd1461038157600080fd5b806375b42794146102ba5780637fecdd99146102da5780638da5cb5b146102fa57806395d89b411461030b578063a22cb46514610313578063aaad92681461032657600080fd5b80632f745c591161014b5780634f6ccce7116101255780634f6ccce71461026e5780636352211e14610281578063691562a01461029457806370a08231146102a757600080fd5b80632f745c591461023557806342842e0e1461024857806342966c681461025b57600080fd5b806301ffc9a71461019357806306fdde03146101bb578063081812fc146101d0578063095ea7b3146101fb57806318160ddd1461021057806323b872dd14610222575b600080fd5b6101a66101a1366004612893565b610438565b60405190151581526020015b60405180910390f35b6101c3610449565b6040516101b29190612afd565b6101e36101de36600461297c565b6104db565b6040516001600160a01b0390911681526020016101b2565b61020e61020936600461286a565b610575565b005b6008545b6040519081526020016101b2565b61020e610230366004612714565b61068b565b61021461024336600461286a565b6106bd565b61020e610256366004612714565b610753565b61020e61026936600461297c565b61076e565b61021461027c36600461297c565b6107e8565b6101e361028f36600461297c565b610889565b61020e6102a2366004612841565b610900565b6102146102b53660046126c8565b610f1b565b6102cd6102c836600461297c565b610fa2565b6040516101b29190612bb3565b6102ed6102e836600461297c565b6110c4565b6040516101b29190612d2a565b600c546001600160a01b03166101e3565b6101c36111e8565b61020e610321366004612807565b6111f7565b61033961033436600461297c565b6112bc565b6040516101b29190612c5a565b61021461035436600461297c565b6000908152600e6020526040902060050180544290915590565b61020e61037c36600461274f565b6114d5565b6101c361038f36600461297c565b61150d565b6103a76103a23660046128cb565b6115e8565b6040516101b29190612dd0565b6103c76103c236600461297c565b611855565b6040516101b29190612e26565b6102146103e236600461297c565b6000908152600e6020526040902060060180544290915590565b6101a661040a3660046126e2565b6001600160a01b03918216600090815260056020908152604080832093909416825291909152205460ff1690565b6000610443826119bd565b92915050565b60606000805461045890612f21565b80601f016020809104026020016040519081016040528092919081815260200182805461048490612f21565b80156104d15780601f106104a6576101008083540402835291602001916104d1565b820191906000526020600020905b8154815290600101906020018083116104b457829003601f168201915b5050505050905090565b6000818152600260205260408120546001600160a01b03166105595760405162461bcd60e51b815260206004820152602c60248201527f4552433732313a20617070726f76656420717565727920666f72206e6f6e657860448201526b34b9ba32b73a103a37b5b2b760a11b60648201526084015b60405180910390fd5b506000908152600460205260409020546001600160a01b031690565b600061058082610889565b9050806001600160a01b0316836001600160a01b031614156105ee5760405162461bcd60e51b815260206004820152602160248201527f4552433732313a20617070726f76616c20746f2063757272656e74206f776e656044820152603960f91b6064820152608401610550565b336001600160a01b038216148061060a575061060a813361040a565b61067c5760405162461bcd60e51b815260206004820152603860248201527f4552433732313a20617070726f76652063616c6c6572206973206e6f74206f7760448201527f6e6572206e6f7220617070726f76656420666f7220616c6c00000000000000006064820152608401610550565b61068683836119e2565b505050565b610696335b82611a50565b6106b25760405162461bcd60e51b815260040161055090612b62565b610686838383611b47565b60006106c883610f1b565b821061072a5760405162461bcd60e51b815260206004820152602b60248201527f455243373231456e756d657261626c653a206f776e657220696e646578206f7560448201526a74206f6620626f756e647360a81b6064820152608401610550565b506001600160a01b03919091166000908152600660209081526040808320938352929052205490565b610686838383604051806020016040528060008152506114d5565b61077733610690565b6107dc5760405162461bcd60e51b815260206004820152603060248201527f4552433732314275726e61626c653a2063616c6c6572206973206e6f74206f7760448201526f1b995c881b9bdc88185c1c1c9bdd995960821b6064820152608401610550565b6107e581611cf2565b50565b60006107f360085490565b82106108565760405162461bcd60e51b815260206004820152602c60248201527f455243373231456e756d657261626c653a20676c6f62616c20696e646578206f60448201526b7574206f6620626f756e647360a01b6064820152608401610550565b6008828154811061087757634e487b7160e01b600052603260045260246000fd5b90600052602060002001549050919050565b6000818152600260205260408120546001600160a01b0316806104435760405162461bcd60e51b815260206004820152602960248201527f4552433732313a206f776e657220717565727920666f72206e6f6e657869737460448201526832b73a103a37b5b2b760b91b6064820152608401610550565b600c546001600160a01b0316331461095a5760405162461bcd60e51b815260206004820181905260248201527f4f776e61626c653a2063616c6c6572206973206e6f7420746865206f776e65726044820152606401610550565b6000610965600a5490565b90506109718382611d99565b600382600381111561099357634e487b7160e01b600052602160045260246000fd5b14610c27576000600f60008460038111156109be57634e487b7160e01b600052602160045260246000fd5b60038111156109dd57634e487b7160e01b600052602160045260246000fd5b8152602001908152602001600020805490504233604051602001610a02929190612aa0565b6040516020818303038152906040528051906020012060001c610a259190612f77565b90506000600f6000856003811115610a4d57634e487b7160e01b600052602160045260246000fd5b6003811115610a6c57634e487b7160e01b600052602160045260246000fd5b81526020019081526020016000208281548110610a9957634e487b7160e01b600052603260045260246000fd5b90600052602060002001549050604051806101000160405280828152602001600160ff16815260200160008152602001600081526020016000815260200142815260200142815260200160246000876003811115610b0757634e487b7160e01b600052602160045260246000fd5b6003811115610b2657634e487b7160e01b600052602160045260246000fd5b8152602001908152602001600020805480602002602001604051908101604052809291908181526020018280548015610b9c57602002820191906000526020600020906000905b825461010083900a900460ff16815260206001928301818104948501949093039092029101808411610b6d5790505b5050509190925250506000848152600e6020908152604091829020835181558382015160018201805460ff191660ff909216919091179055918301516002830155606083015160038301556080830151600483015560a0830151600583015560c0830151600683015560e08301518051610c1c926007850192019061241d565b509050505050610f0d565b600060044233604051602001610c3e929190612aa0565b6040516020818303038152906040528051906020012060001c610c619190612f77565b6003811115610c8057634e487b7160e01b600052602160045260246000fd5b90506000600f6000836003811115610ca857634e487b7160e01b600052602160045260246000fd5b6003811115610cc757634e487b7160e01b600052602160045260246000fd5b8152602001908152602001600020805490504233604051602001610cec929190612aa0565b6040516020818303038152906040528051906020012060001c610d0f9190612f77565b90506000600f6000846003811115610d3757634e487b7160e01b600052602160045260246000fd5b6003811115610d5657634e487b7160e01b600052602160045260246000fd5b81526020019081526020016000208281548110610d8357634e487b7160e01b600052603260045260246000fd5b90600052602060002001549050604051806101000160405280828152602001600160ff16815260200160008152602001600081526020016000815260200142815260200142815260200160246000866003811115610df157634e487b7160e01b600052602160045260246000fd5b6003811115610e1057634e487b7160e01b600052602160045260246000fd5b8152602001908152602001600020805480602002602001604051908101604052809291908181526020018280548015610e8657602002820191906000526020600020906000905b825461010083900a900460ff16815260206001928301818104948501949093039092029101808411610e575790505b5050509190925250506000858152600e6020908152604091829020835181558382015160018201805460ff191660ff909216919091179055918301516002830155606083015160038301556080830151600483015560a0830151600583015560c0830151600683015560e08301518051610f06926007850192019061241d565b5050505050505b610686600a80546001019055565b60006001600160a01b038216610f865760405162461bcd60e51b815260206004820152602a60248201527f4552433732313a2062616c616e636520717565727920666f7220746865207a65604482015269726f206164647265737360b01b6064820152608401610550565b506001600160a01b031660009081526003602052604090205490565b610faa6124c3565b6000828152600d602052604090819020815160e081019092528054829060ff166003811115610fe957634e487b7160e01b600052602160045260246000fd5b600381111561100857634e487b7160e01b600052602160045260246000fd5b81526040805180820182526001840154815260028401546020828101919091528084019190915281518083018352600385015481526004850154818301528284015281518083018352600585015481526006850154818301526060840152815180830183526007850154815260088501548183015260808401528151808301835260098501548152600a8501548183015260a08401528151808301909252600b8401548252600c909301549281019290925260c0015292915050565b61110f60405180610100016040528060008152602001600060ff1681526020016000815260200160008152602001600081526020016000815260200160008152602001606081525090565b6000828152600e602090815260409182902082516101008101845281548152600182015460ff16818401526002820154818501526003820154606082015260048201546080820152600582015460a0820152600682015460c08201526007820180548551818602810186019096528086529194929360e086019392908301828280156111d857602002820191906000526020600020906000905b825461010083900a900460ff168152602060019283018181049485019490930390920291018084116111a95790505b5050505050815250509050919050565b60606001805461045890612f21565b6001600160a01b0382163314156112505760405162461bcd60e51b815260206004820152601960248201527f4552433732313a20617070726f766520746f2063616c6c6572000000000000006044820152606401610550565b3360008181526005602090815260408083206001600160a01b03871680855290835292819020805460ff191686151590811790915590519081529192917f17307eab39ab6107e8899845ad3d59bd9653f200f220920489ca2b5937696c31910160405180910390a35050565b6112c46125a2565b60006112cf836110c4565b905060008160e001515167ffffffffffffffff8111156112ff57634e487b7160e01b600052604160045260246000fd5b60405190808252806020026020018201604052801561136357816020015b6113506040805160a081019091526060815260208101600081526020016000815260200160008152602001600081525090565b81526020019060019003908161131d5790505b50905060005b8260e00151518110156113eb576113ad8360e00151828151811061139d57634e487b7160e01b600052603260045260246000fd5b602002602001015160ff16611855565b8282815181106113cd57634e487b7160e01b600052603260045260246000fd5b602002602001018190525080806113e390612f5c565b915050611369565b50600061140b6113fe8460000151610fa2565b846020015160ff166115e8565b9050604051806101e0016040528084600001518152602001846020015160ff1681526020018460400151815260200184606001518152602001846080015181526020018460a0015181526020018460c0015181526020018260000151600381111561148657634e487b7160e01b600052602160045260246000fd5b8152602001826020015181526020018260400151815260200182606001518152602001826080015181526020018260a0015181526020018260c001518152602001838152509350505050919050565b6114df3383611a50565b6114fb5760405162461bcd60e51b815260040161055090612b62565b61150784848484611ee7565b50505050565b6000818152600260205260409020546060906001600160a01b031661158c5760405162461bcd60e51b815260206004820152602f60248201527f4552433732314d657461646174613a2055524920717565727920666f72206e6f60448201526e3732bc34b9ba32b73a103a37b5b2b760891b6064820152608401610550565b6000611596611f1a565b905060008151116115b657604051806020016040528060008152506115e1565b806115c084611f29565b6040516020016115d1929190612a71565b6040516020818303038152906040525b9392505050565b6116296040805160e0810190915280600081526020016000815260200160008152602001600081526020016000815260200160008152602001600081525090565b61166a6040805160e0810190915280600081526020016000815260200160008152602001600081526020016000815260200160008152602001600081525090565b83518190600381111561168d57634e487b7160e01b600052602160045260246000fd5b908160038111156116ae57634e487b7160e01b600052602160045260246000fd5b90525060208085015101516116c561010085612eab565b60208087015180519101516116da9190612ede565b6116e49190612ebf565b6116ee9190612e93565b6020808301919091526040850151015161170a61010085612eab565b604086015180516020909101516117219190612ede565b61172b9190612ebf565b6117359190612e93565b604082015260608401516020015161174f61010085612eab565b606086015180516020909101516117669190612ede565b6117709190612ebf565b61177a9190612e93565b606082015260808401516020015161179461010085612eab565b608086015180516020909101516117ab9190612ede565b6117b59190612ebf565b6117bf9190612e93565b608082015260a0840151602001516117d961010085612eab565b60a086015180516020909101516117f09190612ede565b6117fa9190612ebf565b6118049190612e93565b60a082015260c08401516020015161181e61010085612eab565b60c086015180516020909101516118359190612ede565b61183f9190612ebf565b6118499190612e93565b60c08201529392505050565b6118886040805160a081019091526060815260208101600081526020016000815260200160008152602001600081525090565b601082600481106118a957634e487b7160e01b600052603260045260246000fd5b600502016040518060a00160405290816000820180546118c890612f21565b80601f01602080910402602001604051908101604052809291908181526020018280546118f490612f21565b80156119415780601f1061191657610100808354040283529160200191611941565b820191906000526020600020905b81548152906001019060200180831161192457829003601f168201915b5050509183525050600182015460209091019060ff16600381111561197657634e487b7160e01b600052602160045260246000fd5b600381111561199557634e487b7160e01b600052602160045260246000fd5b8152600282015460208201526003820154604082015260049091015460609091015292915050565b60006001600160e01b0319821663780e9d6360e01b1480610443575061044382612043565b600081815260046020526040902080546001600160a01b0319166001600160a01b0384169081179091558190611a1782610889565b6001600160a01b03167f8c5be1e5ebec7d5bd14f71427d1e84f3dd0314c0f7b2291e5b200ac8c7c3b92560405160405180910390a45050565b6000818152600260205260408120546001600160a01b0316611ac95760405162461bcd60e51b815260206004820152602c60248201527f4552433732313a206f70657261746f7220717565727920666f72206e6f6e657860448201526b34b9ba32b73a103a37b5b2b760a11b6064820152608401610550565b6000611ad483610889565b9050806001600160a01b0316846001600160a01b03161480611b0f5750836001600160a01b0316611b04846104db565b6001600160a01b0316145b80611b3f57506001600160a01b0380821660009081526005602090815260408083209388168352929052205460ff165b949350505050565b826001600160a01b0316611b5a82610889565b6001600160a01b031614611bc25760405162461bcd60e51b815260206004820152602960248201527f4552433732313a207472616e73666572206f6620746f6b656e2074686174206960448201526839903737ba1037bbb760b91b6064820152608401610550565b6001600160a01b038216611c245760405162461bcd60e51b8152602060048201526024808201527f4552433732313a207472616e7366657220746f20746865207a65726f206164646044820152637265737360e01b6064820152608401610550565b611c2f838383612093565b611c3a6000826119e2565b6001600160a01b0383166000908152600360205260408120805460019290611c63908490612ede565b90915550506001600160a01b0382166000908152600360205260408120805460019290611c91908490612e93565b909155505060008181526002602052604080822080546001600160a01b0319166001600160a01b0386811691821790925591518493918716917fddf252ad1be2c89b69c2b068fc378daa952ba7f163c4a11628f55a4df523b3ef91a4505050565b6000611cfd82610889565b9050611d0b81600084612093565b611d166000836119e2565b6001600160a01b0381166000908152600360205260408120805460019290611d3f908490612ede565b909155505060008281526002602052604080822080546001600160a01b0319169055518391906001600160a01b038416907fddf252ad1be2c89b69c2b068fc378daa952ba7f163c4a11628f55a4df523b3ef908390a45050565b6001600160a01b038216611def5760405162461bcd60e51b815260206004820181905260248201527f4552433732313a206d696e7420746f20746865207a65726f20616464726573736044820152606401610550565b6000818152600260205260409020546001600160a01b031615611e545760405162461bcd60e51b815260206004820152601c60248201527f4552433732313a20746f6b656e20616c7265616479206d696e746564000000006044820152606401610550565b611e6060008383612093565b6001600160a01b0382166000908152600360205260408120805460019290611e89908490612e93565b909155505060008181526002602052604080822080546001600160a01b0319166001600160a01b03861690811790915590518392907fddf252ad1be2c89b69c2b068fc378daa952ba7f163c4a11628f55a4df523b3ef908290a45050565b611ef2848484611b47565b611efe8484848461209e565b6115075760405162461bcd60e51b815260040161055090612b10565b6060600b805461045890612f21565b606081611f4d5750506040805180820190915260018152600360fc1b602082015290565b8160005b8115611f775780611f6181612f5c565b9150611f709050600a83612eab565b9150611f51565b60008167ffffffffffffffff811115611fa057634e487b7160e01b600052604160045260246000fd5b6040519080825280601f01601f191660200182016040528015611fca576020820181803683370190505b5090505b8415611b3f57611fdf600183612ede565b9150611fec600a86612f77565b611ff7906030612e93565b60f81b81838151811061201a57634e487b7160e01b600052603260045260246000fd5b60200101906001600160f81b031916908160001a90535061203c600a86612eab565b9450611fce565b60006001600160e01b031982166380ac58cd60e01b148061207457506001600160e01b03198216635b5e139f60e01b145b8061044357506301ffc9a760e01b6001600160e01b0319831614610443565b6106868383836121ab565b60006001600160a01b0384163b156121a057604051630a85bd0160e11b81526001600160a01b0385169063150b7a02906120e2903390899088908890600401612ac0565b602060405180830381600087803b1580156120fc57600080fd5b505af192505050801561212c575060408051601f3d908101601f19168201909252612129918101906128af565b60015b612186573d80801561215a576040519150601f19603f3d011682016040523d82523d6000602084013e61215f565b606091505b50805161217e5760405162461bcd60e51b815260040161055090612b10565b805181602001fd5b6001600160e01b031916630a85bd0160e11b149050611b3f565b506001949350505050565b6001600160a01b0383166122065761220181600880546000838152600960205260408120829055600182018355919091527ff3f7a9fe364faab93b216da50a3214154f22a0a2b415b23a84c8169e8b636ee30155565b612229565b816001600160a01b0316836001600160a01b031614612229576122298382612263565b6001600160a01b0382166122405761068681612300565b826001600160a01b0316826001600160a01b0316146106865761068682826123d9565b6000600161227084610f1b565b61227a9190612ede565b6000838152600760205260409020549091508082146122cd576001600160a01b03841660009081526006602090815260408083208584528252808320548484528184208190558352600790915290208190555b5060009182526007602090815260408084208490556001600160a01b039094168352600681528383209183525290812055565b60085460009061231290600190612ede565b6000838152600960205260408120546008805493945090928490811061234857634e487b7160e01b600052603260045260246000fd5b90600052602060002001549050806008838154811061237757634e487b7160e01b600052603260045260246000fd5b60009182526020808320909101929092558281526009909152604080822084905585825281205560088054806123bd57634e487b7160e01b600052603160045260246000fd5b6001900381819060005260206000200160009055905550505050565b60006123e483610f1b565b6001600160a01b039093166000908152600660209081526040808320868452825280832085905593825260079052919091209190915550565b82805482825590600052602060002090601f016020900481019282156124b35791602002820160005b8382111561248457835183826101000a81548160ff021916908360ff1602179055509260200192600101602081600001049283019260010302612446565b80156124b15782816101000a81549060ff0219169055600101602081600001049283019260010302612484565b505b506124bf92915061263a565b5090565b6040805160e0810190915280600081526020016124f3604051806040016040528060008152602001600081525090565b8152602001612515604051806040016040528060008152602001600081525090565b8152602001612537604051806040016040528060008152602001600081525090565b8152602001612559604051806040016040528060008152602001600081525090565b815260200161257b604051806040016040528060008152602001600081525090565b815260200161259d604051806040016040528060008152602001600081525090565b905290565b604051806101e0016040528060008152602001600060ff16815260200160008152602001600081526020016000815260200160008152602001600081526020016000600381111561260357634e487b7160e01b600052602160045260246000fd5b8152602001600081526020016000815260200160008152602001600081526020016000815260200160008152602001606081525090565b5b808211156124bf576000815560010161263b565b80356001600160a01b038116811461266657600080fd5b919050565b80356004811061266657600080fd5b60006040828403121561268b578081fd5b6040516040810181811067ffffffffffffffff821117156126ae576126ae612fb7565b604052823581526020928301359281019290925250919050565b6000602082840312156126d9578081fd5b6115e18261264f565b600080604083850312156126f4578081fd5b6126fd8361264f565b915061270b6020840161264f565b90509250929050565b600080600060608486031215612728578081fd5b6127318461264f565b925061273f6020850161264f565b9150604084013590509250925092565b60008060008060808587031215612764578081fd5b61276d8561264f565b9350602061277c81870161264f565b935060408601359250606086013567ffffffffffffffff8082111561279f578384fd5b818801915088601f8301126127b2578384fd5b8135818111156127c4576127c4612fb7565b6127d6601f8201601f19168501612e62565b915080825289848285010111156127eb578485fd5b8084840185840137810190920192909252939692955090935050565b60008060408385031215612819578182fd5b6128228361264f565b915060208301358015158114612836578182fd5b809150509250929050565b60008060408385031215612853578182fd5b61285c8361264f565b915061270b6020840161266b565b6000806040838503121561287c578182fd5b6128858361264f565b946020939093013593505050565b6000602082840312156128a4578081fd5b81356115e181612feb565b6000602082840312156128c0578081fd5b81516115e181612feb565b6000808284036101c08112156128df578283fd5b6101a0808212156128ee578384fd5b6128f6612e39565b91506129018561266b565b8252612910866020870161267a565b6020830152612922866060870161267a565b60408301526129348660a0870161267a565b60608301526129468660e0870161267a565b608083015261295986610120870161267a565b60a083015261296c86610160870161267a565b60c0830152909593013593505050565b60006020828403121561298d578081fd5b5035919050565b600081518084526020808501808196508360051b81019150828601855b858110156129db5782840389526129c9848351612a21565b988501989350908401906001016129b1565b5091979650505050505050565b60008151808452612a00816020860160208601612ef5565b601f01601f19169290920160200192915050565b612a1d81612fcd565b9052565b6000815160a08452612a3660a08501826129e8565b90506020830151612a4681612fcd565b6020850152604083810151908501526060808401519085015260809283015192909301919091525090565b60008351612a83818460208801612ef5565b835190830190612a97818360208801612ef5565b01949350505050565b91825260601b6bffffffffffffffffffffffff1916602082015260340190565b6001600160a01b0385811682528416602082015260408101839052608060608201819052600090612af3908301846129e8565b9695505050505050565b6020815260006115e160208301846129e8565b60208082526032908201527f4552433732313a207472616e7366657220746f206e6f6e20455243373231526560408201527131b2b4bb32b91034b6b83632b6b2b73a32b960711b606082015260800190565b60208082526031908201527f4552433732313a207472616e736665722063616c6c6572206973206e6f74206f6040820152701ddb995c881b9bdc88185c1c1c9bdd9959607a1b606082015260800190565b81516101a0820190612bc481612fcd565b82526020838101518051828501529081015160408401525060408301518051606084015260208101516080840152506060830151805160a0840152602081015160c0840152506080830151805160e084015260208101516101008401525060a0830151805161012084015260208101516101408401525060c0830151805161016084015260208101516101808401525092915050565b602081528151602082015260006020830151612c7b604084018260ff169052565b506040830151606083015260608301516080830152608083015160a083015260a083015160c083015260c083015160e083015260e0830151610100612cc281850183612a14565b840151610120848101919091528401516101408085019190915284015161016080850191909152840151610180808501919091528401516101a0808501919091528401516101c0808501919091528401516101e0808501529050611b3f610200840182612994565b6000602080835261012083018451828501528185015160ff80821660408701526040870151606087015260608701516080870152608087015160a087015260a087015160c087015260c087015160e087015260e087015191506101008081880152508282518085526101408801915085840194508693505b80841015612dc457845183168252938501936001939093019290850190612da2565b50979650505050505050565b815160e0820190612de081612fcd565b808352506020830151602083015260408301516040830152606083015160608301526080830151608083015260a083015160a083015260c083015160c083015292915050565b6020815260006115e16020830184612a21565b60405160e0810167ffffffffffffffff81118282101715612e5c57612e5c612fb7565b60405290565b604051601f8201601f1916810167ffffffffffffffff81118282101715612e8b57612e8b612fb7565b604052919050565b60008219821115612ea657612ea6612f8b565b500190565b600082612eba57612eba612fa1565b500490565b6000816000190483118215151615612ed957612ed9612f8b565b500290565b600082821015612ef057612ef0612f8b565b500390565b60005b83811015612f10578181015183820152602001612ef8565b838111156115075750506000910152565b600181811c90821680612f3557607f821691505b60208210811415612f5657634e487b7160e01b600052602260045260246000fd5b50919050565b6000600019821415612f7057612f70612f8b565b5060010190565b600082612f8657612f86612fa1565b500690565b634e487b7160e01b600052601160045260246000fd5b634e487b7160e01b600052601260045260246000fd5b634e487b7160e01b600052604160045260246000fd5b600481106107e557634e487b7160e01b600052602160045260246000fd5b6001600160e01b0319811681146107e557600080fdfea26469706673582212200b2f3cee772aff75ab69c9c758f6c9b661be6b93f62fe4e2c5846677d2c93f0a64736f6c63430008040033",
    "sourcePath": "c:/Users/hbnat/Desktop/cryptures/cryptures.sol",
    "compiler": {
        "name": "solc",
        "version": "0.8.4+commit.c7e474f2"
    },
    "functionHashes": {
        "approve(address,uint256)": "095ea7b3",
        "balanceOf(address)": "70a08231",
        "burn(uint256)": "42966c68",
        "feedCreatureFromId(uint256)": "b51f8fd2",
        "getApproved(uint256)": "081812fc",
        "getCryptureAttack(uint256)": "d663a9cc",
        "getCryptureBaseStats(uint256)": "75b42794",
        "getCryptureCompleteInfo(uint256)": "aaad9268",
        "getCryptureInfo(uint256)": "7fecdd99",
        "getStatByLevel((uint8,(uint256,uint256),(uint256,uint256),(uint256,uint256),(uint256,uint256),(uint256,uint256),(uint256,uint256)),uint256)": "d36c44b5",
        "isApprovedForAll(address,address)": "e985e9c5",
        "mint(address,uint8)": "691562a0",
        "name()": "06fdde03",
        "owner()": "8da5cb5b",
        "ownerOf(uint256)": "6352211e",
        "safeTransferFrom(address,address,uint256)": "42842e0e",
        "safeTransferFrom(address,address,uint256,bytes)": "b88d4fde",
        "setApprovalForAll(address,bool)": "a22cb465",
        "supportsInterface(bytes4)": "01ffc9a7",
        "symbol()": "95d89b41",
        "tokenByIndex(uint256)": "4f6ccce7",
        "tokenOfOwnerByIndex(address,uint256)": "2f745c59",
        "tokenURI(uint256)": "c87b56dd",
        "totalSupply()": "18160ddd",
        "transferFrom(address,address,uint256)": "23b872dd",
        "washCreatureFromId(uint256)": "e6755ff9"
    },
    "gasEstimates": {
        "creation": {
            "codeDepositCost": "2468600",
            "executionCost": "infinite",
            "totalCost": "infinite"
        },
        "external": {
            "approve(address,uint256)": "infinite",
            "balanceOf(address)": "1400",
            "burn(uint256)": "infinite",
            "feedCreatureFromId(uint256)": "21200",
            "getApproved(uint256)": "2160",
            "getCryptureAttack(uint256)": "infinite",
            "getCryptureBaseStats(uint256)": "12444",
            "getCryptureCompleteInfo(uint256)": "infinite",
            "getCryptureInfo(uint256)": "infinite",
            "getStatByLevel((uint8,(uint256,uint256),(uint256,uint256),(uint256,uint256),(uint256,uint256),(uint256,uint256),(uint256,uint256)),uint256)": "infinite",
            "isApprovedForAll(address,address)": "infinite",
            "mint(address,uint8)": "infinite",
            "name()": "infinite",
            "owner()": "1098",
            "ownerOf(uint256)": "1323",
            "safeTransferFrom(address,address,uint256)": "infinite",
            "safeTransferFrom(address,address,uint256,bytes)": "infinite",
            "setApprovalForAll(address,bool)": "23339",
            "supportsInterface(bytes4)": "infinite",
            "symbol()": "infinite",
            "tokenByIndex(uint256)": "2860",
            "tokenOfOwnerByIndex(address,uint256)": "2376",
            "tokenURI(uint256)": "infinite",
            "totalSupply()": "1093",
            "transferFrom(address,address,uint256)": "infinite",
            "washCreatureFromId(uint256)": "21243"
        },
        "internal": {
            "_baseURI()": "infinite",
            "_beforeTokenTransfer(address,address,uint256)": "infinite"
        }
    }
}